:1000000022C046C049C144C043C043C441C040C0EF
:100010003FC03EC03DC03CC03CC03AC039C00102F8
:100020000000040001020408102002020202020281
:100030000000000036000000000038000000000052
:100040003700F702FD0211241FBECFE5D2E0DEBF6C
:10005000CDBF10E0A0E6B0E0E8EFFCE002C0059004
:100060000D92A038B107D9F720E0A0E8B0E001C0B8
:100070001D92AE3EB207E1F710E0C2E2D0E003C04D
:100080002197FE0127D6C132D107D1F7EDD328C67B
:10009000B7CF1F920F920FB60F9211248F930FB606
:1000A000F894A89581B5886181BD11BC0FBE8F9170
:1000B0000F900FBE0F901F9018952091C2003091A5
:1000C000C30028173907B9F490918000809181000E
:1000D000981789F0E0918000F0E0EE57FF4F8081A3
:1000E0002091800030E02F5F3F4F2F733327209304
:1000F000800090E008958FEF9FEF08951F93CF93B6
:10010000DF93DC015C968D919C915D97009739F4AB
:1001100021E030E013963C932E9312973BC051960A
:10012000ED91FC91529750962C915097322F30952B
:100130001FB75E964C915E97742F727041FD60956B
:10014000F8944081772311F0422B01C04323408370
:10015000EC012197F1F748E0508160FF02C0522B7B
:1001600001C053235083EC012197F1F7669541506C
:1001700099F78081772319F08323808302C0282B8D
:1001800020831FBF5C968D919C915D970197F1F73D
:1001900081E090E0DF91CF911F9108952091C200FE
:1001A0003091C3002817390781F490918000809125
:1001B0008100981751F0E0918000F0E0EE57FF4F7A
:1001C0008081082E000C990B08958FEF9FEF089502
:1001D0002091C2003091C3002817390769F480913B
:1001E00081002091800090E0805C9F4F821B9109EC
:1001F00060E470E00AD5089580E090E008952091D1
:10020000C2003091C3002817390739F48FB7F8942A
:1002100010928100109280008FBF0895E091C2007B
:10022000F091C300E817F90769F4A389B4899C9198
:100230008589809589238C931092C3001092C20007
:1002400081E0089580E00895CF93DF93EC018A8DDB
:100250009B8D892BE9F08091C2009091C300C81753
:10026000D907B1F0009709F0D9DF8E8D8E7F8E8F80
:100270001092810010928000D093C300C093C200FE
:10028000EB89FC8990818D89892B808381E001C075
:1002900080E0DF91CF9108951F920F920FB60F92D9
:1002A00011242F933F934F935F936F937F938F937B
:1002B0009F93AF93BF93EF93FF93E091C200F091B0
:1002C000C300309709F451C0968DA685B785858502
:1002D00091FF04C09C91892329F447C09C918923F4
:1002E00009F043C0A389B4899C91858980958923AD
:1002F0008C93868997890197F1F7608D718DA6851A
:10030000B785558538E020E0CB010197F1F7822FC2
:1003100090E095958795282F4C91452309F020680A
:10032000315091F7868D81FD20958091810090E07C
:1003300001968F73992730918000381749F0A0916A
:100340008100B0E0AE57BF4F2C938093810003C073
:10035000868D8160868F828D938D0197F1F7A389B9
:10036000B4899C918589892B8C930BD1FF91EF9156
:10037000BF91AF919F918F917F916F915F914F91BD
:100380003F912F910F900FBE0F901F90189525E66B
:1003900030E0FC013183208341CF1F93CF93DF9363
:1003A000EC01162F6E8D6695617081E06827812FB4
:1003B00092D361E0812F40D3812F90E0FC01EC5D6E
:1003C000FF4FE491E88BFC01E65DFF4FE491F0E024
:1003D000EE0FFF1FEA5CFF4F859194919A8B898BFA
:1003E000DF91CF911F9108951F93CF93DF93EC017D
:1003F000162F60E0812F20D38E8D81FD03C061E038
:10040000812F69D31C87812F90E0FC01EC5DFF4FA9
:10041000E491ED87FC01E65DFF4FE491F0E0EE0F23
:10042000FF1FE05DFF4F859194919F878E87DF913D
:10043000CF911F9108951F93CF93DF93EC01162F57
:100440001B821A8288EE93E0A0E0B0E08C839D834B
:10045000AE83BF8385E690E0998388831F8A1E8AD6
:10046000198E188E1B8E1A8E1D8E1C8E8E8D8E7F71
:1004700020FB81F98E8F642FCE018FDF612FCE019B
:10048000DF91CF911F91B0CFCF93DF93EC019A0111
:10049000AB011B8E1A8E198E188E1F8A1E8A60E879
:1004A00074E88EE190E0E6D3B9012430310518F00C
:1004B000C901039702C081E090E09D8F8C8F8C85ED
:1004C000863008F03EC0C901969587958431910524
:1004D00010F0439702C081E090E09F8B8E8B6630D6
:1004E000710518F0C901059702C081E090E0998F6D
:1004F000888FC90163E070E077D3969587959695CC
:1005000087958D30910510F00C9702C081E090E046
:100510009B8F8A8F8BB780628BBF9C85963018F03B
:1005200020E030E002C025E330E03C8B2B8B81E003
:1005300001C0880F9A95EAF78D8B8C8D9D8D019760
:10054000F1F7CE01DF91CF917FCE8CE087B962E0E9
:1005500070E080E090E00ED2369A3699FECF84B1FA
:1005600085B1369A3699FECF24B185B130E0382B6B
:1005700040E050E060E070E381E190E07BD3C901AE
:10058000089582E0EDD2892B41F41092E40010929C
:10059000E30081E080936000089581E0E1D201975B
:1005A00061F48091E3009091E40001969093E4005F
:1005B0008093E30081E080936000089562E082E030
:1005C0003BD285B3866085BB8BB780628BBF60E012
:1005D00081E032D260E085E07ED261E085E02CD21D
:1005E00040E855E260E070E084EC90E04DCF20E020
:1005F00044E063E084EC90E01ECF84EC90E0C7CE52
:10060000CF93DF9361E085E066D29FDFEC0168EB7A
:100610007BE080E090E0AED161E770E084EC90E0B8
:1006200066D06091E3007091E4004AE050E084EC11
:1006300090E015D168E770E084EC90E058D04AE093
:1006400050E0BE0184EC90E0F8D06EE770E084ECFE
:1006500090E04DD084EC90E0BBDD892B19F084EC68
:1006600090E02BDD60E085E036D2DF91CF910895F8
:1006700080916000882319F0C3DF10926000089514
:10068000CF92DF92EF92FF920F931F93CF93DF935E
:100690006C01EB017B01E40EF51E00E010E0CE15CD
:1006A000DF0561F06991D601ED91FC910190F08137
:1006B000E02DC6010995080F191FF1CFC801DF9180
:1006C000CF911F910F91FF90EF90DF90CF90089501
:1006D000FB0101900020E9F73197AF01461B570B52
:1006E000DC01ED91FC910280F381E02D0994F0CFC3
:1006F000DC01ED91FC910190F081E02D09948F9245
:100700009F92AF92BF92CF92DF92EF92FF920F93A0
:100710001F93CF93DF93CDB7DEB7A1970FB6F894B1
:10072000DEBF0FBECDBF6C01142FE52FCB01022F12
:1007300019A2223008F40AE07E0121E2E20EF11C47
:10074000802E912CA12CB12C612F7E2FA50194011C
:100750006FD2802F622F3FD2181B81E0E81AF10878
:100760001A3014F4105D01C0195CF7011083122FC8
:10077000E32FCA01232B242B252B31F7B701C60108
:10078000A7DFA1960FB6F894DEBF0FBECDBFDF91F5
:10079000CF911F910F91FF90EF90DF90CF90BF907E
:1007A000AF909F908F900895CF92DF92EF92FF923B
:1007B0000F931F93CF93DF93EC016A017B01211507
:1007C000310579F4E881F9810190F081E02D642F01
:1007D000DF91CF911F910F91FF90EF90DF90CF901D
:1007E00009942A30310501F577FF0CC06DE280DFF6
:1007F0008C01F094E094D094C094C11CD11CE11CF5
:10080000F11C02C000E010E02AE0B701A601CE0111
:1008100076DF800F911FDF91CF911F910F91FF9095
:10082000EF90DF90CF900895DF91CF911F910F91BE
:10083000FF90EF90DF90CF9062CF9A01AB01770FDE
:10084000660B770BB1CF2115310541F4DC01ED9139
:10085000FC910190F081E02D642F099450CF9A0112
:10086000AB0160E070E0EFCF81B781BFADD0A6DE15
:10087000FFDEFECF80B7807F80BF80B7806880BFFB
:100880008CB580648CBD8FEF8DBD80B7876080BFD5
:1008900008951F920F920FB60F9211242F933F933A
:1008A0008F939F93AF93BF938091E6009091E70061
:1008B000A091E800B091E9003091E50026E0230F17
:1008C0002D3730F029E8230F0396A11DB11D03C079
:1008D0000296A11DB11D2093E5008093E600909340
:1008E000E700A093E800B093E9008091EA009091BE
:1008F000EB00A091EC00B091ED000196A11DB11D9F
:100900008093EA009093EB00A093EC00B093ED008D
:10091000BF91AF919F918F913F912F910F900FBEFB
:100920000F901F9018953FB7F8948091EA0090912E
:10093000EB00A091EC00B091ED0022B708B601FEEB
:1009400005C02F3F19F00196A11DB11D3FBFBA2F61
:10095000A92F982F8827820F911DA11DB11DBC01C1
:10096000CD0143E0660F771F881F991F4A95D1F785
:1009700008950895CF92DF92EF92FF92CF93DF9385
:100980006B017C01D0DFEB01C114D104E104F1045F
:10099000A1F0EFDFC8DF6C1B7D0B683E7340A0F356
:1009A000C114D104E104F10479F381E0C81AD1083B
:1009B000E108F108C851DC4FEDCFDF91CF91FF90F6
:1009C000EF90DF90CF9008958AB582608ABD8AB596
:1009D00081608ABD83B7887F836083BF789489B73D
:1009E000826089BF47DF86B18877866886B9379A83
:1009F0000895813031F48AB58F778ABD8AB58F7BAF
:100A000007C0823039F48AB58F7D8ABD8AB58F7E62
:100A10008ABD0895833039F480B78F7D80BF80B759
:100A20008F7E80BF0895843031F48CB58F7D8CBD6E
:100A30008CB58F7E8CBD0895CF93DF9387FF11C057
:100A40008F7741F0813041F0823041F0833041F0C6
:100A50008FEF07C085E005C082E003C084E001C0DD
:100A600083E090E0FC01EC5DFF4F2491FC01E65D2A
:100A7000FF4F8491882361F190E0880F991FFC015A
:100A8000E45CFF4FC591D491FC01EA5CFF4FA59156
:100A9000B491611109C09FB7F89488812095822391
:100AA0008883EC912E230BC0623061F49FB7F894D9
:100AB0008881322F309583238883EC912E2B2C93C1
:100AC0009FBF06C08FB7F894E8812E2B28838FBF75
:100AD000DF91CF9108951F93CF93DF93162F87FF58
:100AE00011C08F7741F0813041F0823041F0833086
:100AF00041F08FEF07C085E005C082E003C084E0CD
:100B000001C083E0282F30E0F901E25EFF4F8491BD
:100B1000F901EC5DFF4FD491F901E65DFF4FC491FF
:100B2000CC23D1F0811165DFEC2FF0E0EE0FFF1F39
:100B3000EA5CFF4FA591B491111108C09FB7F894DA
:100B40008C91D095D823DC939FBF06C08FB7F894C3
:100B5000EC91DE2BDC938FBFDF91CF911F91089535
:100B6000CF93DF9387FF11C08F7741F0813041F041
:100B7000823041F0833041F08FEF07C085E005C03F
:100B800082E003C084E001C083E0282F30E0F90157
:100B9000E25EFF4F8491F901EC5DFF4FD491F901C2
:100BA000E65DFF4FC491CC2389F0811122DFEC2F49
:100BB000F0E0EE0FFF1FE05DFF4FA591B491EC91C7
:100BC000ED2381E090E021F480E002C080E090E03D
:100BD000DF91CF910895002480FD060E660F11F07D
:100BE0008695D1F7802D08950024552704C0080E5E
:100BF000591F880F991F009729F076956795B8F3CC
:100C00007105B9F7802D952F089597FB072E16F4DF
:100C1000009406D077FD08D049D007FC05D03EF4FB
:100C2000909581959F4F0895709561957F4F089598
:100C3000A1E21A2EAA1BBB1BFD010DC0AA1FBB1FE0
:100C4000EE1FFF1FA217B307E407F50720F0A21B52
:100C5000B30BE40BF50B661F771F881F991F1A94BF
:100C600069F760957095809590959B01AC01BD01E9
:100C7000CF010895052E97FB16F400940FD057FD71
:100C800005D0D6DF07FC02D046F408C05095409549
:100C9000309521953F4F4F4F5F4F08959095809528
:100CA000709561957F4F8F4F9F4F0895AA1BBB1B77
:100CB00051E107C0AA1FBB1FA617B70710F0A61B5C
:100CC000B70B881F991F5A95A9F780959095BC017D
:100CD000CD010895EE0FFF1F0590F491E02D0994CA
:100CE00010E0C2E2D0E003C0FE01F4DF2196C3327F
:080CF000D107D1F7F894FFCF02
:100CF80001000000007E004003E8005D00CE00FF18
:100D0800007B4D41494C3A002C4241543A007D0049
:00000001FF
