:100000000C9479020C94FE060C94D7060C94D40838
:100010000C94D4080C94D4080C9471080C94A1028C
:100020000C94A1020C94A1020C94A1020C94A102C4
:100030000C94A1020C94A1020C94A1020C94A102B4
:100040000C948D060C94A1020C9476050C9450052A
:100050000C94A1020C94A1020C94A1020C94A10294
:100060000C9425070C94A102084AD73B3BCE016EA5
:1000700084BCBFFDC12F3D6C74319ABD56833DDAFF
:100080003D00C77F11BED9E4BB4C3E916BAAAABE0E
:10009000000000803F005254432054696D652045A4
:1000A00072726F720031313A31373A3034002C209D
:1000B00000536570203234203230313600436F6D8A
:1000C00070696C65643A20000A2A2A2A2A2A2A2A98
:1000D00020495F524F554554544520424F4F5420BC
:1000E0002A2A2A2A2A2A2A0A000948756D69646977
:1000F00074793A00094C756D696E6F736974793A59
:1001000020000950726573737572653A0009546571
:100110006D70206578743A20000954656D7020690F
:100120006E743A20000957696E64205370656564E7
:100130003A20000957696E206469723A2000095616
:100140004241543A20000943686172676520537444
:100150006174653A20002D2D2D2D2D2D2D2D205330
:10016000656E736F7273202D2D2D2D2D2D2D2D006D
:1001700047657420506172616D204F4B00202D2027
:100180005254432054696D65205570646174652034
:10019000210045727220506172616D206E756D6232
:1001A0006572005278204672616D6520002D5261A3
:1001B00064696F204E6F7420436F6E6E6563746563
:1001C00064002D526164696F205478204661696C27
:1001D000002D526164696F205478204F4B002D52DE
:1001E0006164696F20436F6E6E6563746564002D92
:1001F00020536C656570696E67204C696768742070
:100200004F6E206D6F6465002D20536C65657069BD
:100210006E6720446179206F72204C696768742092
:100220006F6666206D6F6465002D204D6F646520DC
:10023000444159002D204D6F6465204E4947485474
:100240005F4C494748545F4F4646002D204D6F6430
:1002500065204E494748545F4C494748545F4F4ECC
:10026000002D205365747570206E65787420776159
:100270006B6575702074696D65002D20536B697016
:1002800070696E6720526164696F205461736B00FE
:100290002D20526164696F205461736B002D2053CF
:1002A000656E736F727320557064617465002D20E4
:1002B0005254432057616B6575702021000972709C
:1002C0006D5F746F5F6D733A2000097663635F72D0
:1002D0006164696F5F6D696E3A2000097663635FE0
:1002E0006C696768745F6D696E3A20000972706DA1
:1002F0005F6D6561737572655F74696D653A200045
:100300000973756E726973655F74696D653A200073
:100310000973756E7365745F74696D653A200009C1
:10032000736C6565705F706572696F643A2000096F
:100330006E696768745F6D6F64655F6C756D3A2098
:10034000002D2D2D2D2D2D2D2D20506172616D65CF
:1003500074657273202D2D2D2D2D2D2D2D00000057
:100360000000240027002A0000000008000201000D
:10037000000304070000000000000000000000006F
:10038000250028002B000000000023002600290083
:10039000040404040404040402020202020203032B
:1003A0000303030301020408102040800102040833
:1003B00010200102040810204E414E494E49545964
:1003C000494E46CDCCCC3D0AD7233C17B7D1387720
:1003D000CC2B329595E6241FB14F0A000020410036
:1003E00000C84200401C4620BCBE4CCA1B0E5AAE80
:1003F000C59D7400407A10F35A00A0724E1809008F
:1004000010A5D4E80000E87648170000E40B540279
:100410000000CA9A3B000000E1F5050000809698B4
:1004200000000040420F000000A086010000001004
:100430002700000000E80300000000640000000046
:10044000000A00000000000100000000002C76D827
:1004500088DC674F0823DFC1DFAE59E1B1B796E50D
:10046000E3E453C63AE651997696E8E6C28426EB71
:10047000898C9B62ED407C6FFCEFBC9C9F40F2BA84
:10048000A56FA5F490055A2AF75C936B6CF9676D1C
:10049000C11BFCE0E40D47FEF520E6B500D0ED9071
:1004A0002E0300943577050080841E080000204E3E
:1004B0000A000000C80C333333330F986E128311D7
:1004C00041EF8D2114893BE65516CFFEE6DB18D1AE
:1004D000844B381BF77C1D901DA4BBE42420328480
:1004E000725E228100C9F124ECA1E53D2700F61CD3
:1004F000EC1C11241FBECFEFD8E0DEBFCDBF11E052
:10050000A0E0B1E0E4EDF0E502C005900D92A83A5C
:10051000B107D9F724E0A8EAB1E001C01D92A43EDA
:10052000B207E1F712E0C8E7D2E004C02197FE016C
:100530000E943A1EC737D107C9F70E94440F0C9496
:100540005D280C945B0ACF92DF92EF92FF920F939B
:100550001F93CF93DF936C017A018B01C0E0D0E051
:10056000CE15DF0589F0D8016D918D01D601ED9191
:10057000FC910190F081E02DC6010995892B11F4C1
:100580007E0102C02196ECCFC701DF91CF911F9170
:100590000F91FF90EF90DF90CF900895FC01918D27
:1005A000828D981761F0828DDF01A80FB11D5D96D5
:1005B0008C91928D9F5F9F73928F90E008958FEF43
:1005C0009FEF0895FC01918D828D981731F0828DF7
:1005D000E80FF11D858D90E008958FEF9FEF08954E
:1005E000FC01918D228D892F90E0805C9F4F821BB2
:1005F00091098F739927089586EB93E00E94F0028A
:1006000021E0892B09F420E0822F0895FC01848DDC
:10061000DF01A80FB11DA35ABF4F2C91848D90E02C
:1006200001968F739927848FA689B7892C93A08907
:10063000B1898C9180648C93938D848D981306C0BE
:100640000288F389E02D80818F7D80830895EF9269
:10065000FF920F931F93CF93DF93EC0181E0888F7C
:100660009B8D8C8D981305C0E889F989808185FD63
:1006700024C0F62E0B8D10E00F5F1F4F0F73112754
:10068000E02E8C8DE8120CC00FB607FCFACFE8897B
:10069000F989808185FFF5CFCE010E940603F1CF55
:1006A0008B8DFE01E80FF11DE35AFF4FF0820B8F97
:1006B000EA89FB898081806207C0EE89FF896083B7
:1006C000E889F98980818064808381E090E0DF910E
:1006D000CF911F910F91FF90EF900895CF93DF93EB
:1006E000EC01888D8823C9F0EA89FB89808185FD2A
:1006F00005C0A889B9898C9186FD0FC00FB607FC8B
:10070000F5CF808185FFF2CFA889B9898C9185FFCB
:10071000EDCFCE010E940603E7CFDF91CF91089580
:1007200080E090E0892B29F00E94FC0281110C945A
:10073000000008953FB7F89480917E0290917F0267
:10074000A0918002B091810226B5A89B05C02F3FE1
:1007500019F00196A11DB11D3FBFBA2FA92F982FE7
:100760008827820F911DA11DB11DBC01CD0143E061
:10077000660F771F881F991F4A95D1F7089508952E
:1007800085ED8093BC008091BC0084FDFCCF10926D
:100790009203089540915402262F30E0240F311D1A
:1007A00021323105DCF4209192032430C9F4FC019C
:1007B00080E090E0861758F4309154022191DC01DA
:1007C000AE5CBD4FA30FB11D2C930196F3CF80916A
:1007D0005402680F6093540280E0089581E0089508
:1007E00082E008950895E0914B0380914A03E81751
:1007F00030F4F0E0E45BFC4F808190E008958FEFEF
:100800009FEF089590914B0380914A03981750F4FD
:10081000E92FF0E0E45BFC4F208130E09F5F909394
:100820004B0302C02FEF3FEFC901089580914A03A7
:1008300090E020914B03821B91090895CF92DF92A3
:10084000EF92FF920F931F93CF93DF937C01262F9C
:10085000972F8A0180919303882391F0C62FD72F79
:100860006E01C40ED51ECC15DD0571F06991D7015E
:10087000ED91FC910190F081E02DC7010995F3CF36
:10088000642F822F0E94CA03C801DF91CF911F916C
:100890000F91FF90EF90DF90CF900895CF93DF936B
:1008A0001F92CDB7DEB76983209193032223D1F045
:1008B0002091B503203240F021E030E0FC01338389
:1008C000228380E090E015C080919403E82FF0E04F
:1008D000EB56FC4F998190838F5F809394038093B4
:1008E000B50305C061E0CE0101960E94CA0381E014
:1008F00090E00F90DF91CF9108952091AA0130915F
:10090000AB012817390771F49091A8018091A901D2
:10091000981741F0E091A801F0E0EE50FE4F808181
:1009200090E008958FEF9FEF089508951F93CF9360
:10093000DF93DC015C962D913C915D97211531058B
:1009400039F481E090E013969C938E9312973DC00A
:100950005196ED91FC91529750969C915097892F0A
:1009600080951FB75E964C915E9741FB772770F993
:1009700041FD6095F8944081772311F0492B01C027
:1009800048234083E9012197F1F748E0508160FF57
:1009900002C0592B01C058235083E9012197F1F778
:1009A0006695415099F7772321F0908189238083C0
:1009B00003C08081982B90831FBF5C968D919C9182
:1009C0005D970197F1F721E030E0C901DF91CF9108
:1009D0001F9108952091AA013091AB012817390782
:1009E00071F48091A9012091A80190E0805C9F4F53
:1009F000821B910960E470E00E94F01D089580E080
:100A000090E008952091AA013091AB012817390791
:100A1000B9F49091A8018091A901981789F0E0910B
:100A2000A801F0E0EE50FE4F80812091A80130E057
:100A30002F5F3F4F2F7333272093A80190E0089535
:100A40008FEF9FEF08950E9404206115710579F0E2
:100A5000FB0101900020E9F73197AF01461B570BCE
:100A6000DC01ED91FC910280F381E02D099480E09E
:100A700090E0089566E971E00C9425050F931F93AB
:100A8000CF93DF93EC010E9425058C01CE010E94DB
:100A90003A05800F911FDF91CF911F910F9108951B
:100AA0001F920F920FB60F9211242F933F934F93E3
:100AB0005F936F937F938F939F93AF93BF93EF93C6
:100AC000FF9386EB93E00E940603FF91EF91BF91A5
:100AD000AF919F918F917F916F915F914F913F91D6
:100AE0002F910F900FBE0F901F9018951F920F928D
:100AF0000FB60F9211242F938F939F93EF93FF9331
:100B0000E091C603F091C7038081E091CC03F0919E
:100B1000CD0382FD12C090818091CF038F5F8F73D0
:100B20002091D003821751F0E091CF03F0E0EA5416
:100B3000FC4F958F8093CF0301C08081FF91EF918F
:100B40009F918F912F910F900FBE0F901F9018952E
:100B500090E0FC01E859FC4F3491FC01EC55FC4F4E
:100B60002491FC01E057FC4FE491EE2309F43BC0D3
:100B7000332339F1333091F038F43130A9F0323089
:100B800001F584B58F7D12C0373091F03830A1F077
:100B90003430B9F4809180008F7D03C08091800053
:100BA0008F77809380000DC084B58F7784BD09C096
:100BB0008091B0008F7703C08091B0008F7D8093CB
:100BC000B000F0E0EE0FFF1FE458FC4FA591B49188
:100BD0008FB7F894EC91611103C020952E2301C0CA
:100BE0002E2B2C938FBF0895CF93DF9390E0FC01C1
:100BF000EC55FC4F2491FC01E057FC4F8491882375
:100C000061F190E0880F991FFC01E25AFC4FC591F9
:100C1000D491FC01E458FC4FA591B491611109C035
:100C20009FB7F8948881209582238883EC912E23A6
:100C30000BC0623061F49FB7F8943881822F8095A1
:100C400083238883EC912E2B2C939FBF06C08FB7F4
:100C5000F894E8812E2B28838FBFDF91CF910895E0
:100C60008E3008F08E508770806480937C00809175
:100C70007A00806480937A0080917A0086FDFCCFB0
:100C8000809178002091790090E0922B08958F92C6
:100C90009F92AF92BF92CF92DF92EF92FF926B0141
:100CA0007C010E949A034B015C01C114D104E10450
:100CB000F104F1F00E949A03DC01CB018819990933
:100CC000AA09BB09883E9340A105B10570F321E054
:100CD000C21AD108E108F10888EE880E83E0981E58
:100CE000A11CB11CC114D104E104F10419F7DDCF3A
:100CF000FF90EF90DF90CF90BF90AF909F908F903C
:100D000008952FB7F89460917A0270917B028091D8
:100D10007C0290917D022FBF08951F920F920FB613
:100D20000F9211242F933F938F939F93AF93BF9371
:100D300080917A0290917B02A0917C02B0917D0219
:100D40003091790226E0230F2D3720F40296A11D61
:100D5000B11D05C029E8230F0396A11DB11D2093E5
:100D6000790280937A0290937B02A0937C02B093E5
:100D70007D0280917E0290917F02A0918002B091CD
:100D800081020196A11DB11D80937E0290937F0286
:100D9000A0938002B0938102BF91AF919F918F91F8
:100DA0003F912F910F900FBE0F901F9018951F929B
:100DB0000F920FB60F9211242F933F934F935F938F
:100DC0006F937F938F939F93AF93BF93EF93FF9313
:100DD000E0910201F09103010995FF91EF91BF911C
:100DE000AF919F918F917F916F915F914F913F91C3
:100DF0002F910F900FBE0F901F9018951F920F927A
:100E00000FB60F9211242F933F934F935F936F93DD
:100E10007F938F939F93AF93BF93EF93FF93E09153
:100E20000001F09101010995FF91EF91BF91AF9100
:100E30009F918F917F916F915F914F913F912F91F2
:100E40000F900FBE0F901F9018951F920F920FB624
:100E50000F9211242F933F934F935F936F937F9340
:100E60008F939F93AF93BF93EF93FF938091B900BC
:100E7000887F803609F49CC068F5883209F45BC02D
:100E800090F4803109F454C038F4882309F4F6C092
:100E9000883009F44DC0F6C0883109F44CC0803266
:100EA00009F45DC0EFC0803409F468C048F48033B1
:100EB00009F455C0883309F0E5C080939003D8C089
:100EC000803509F44FC0883509F45DC0883409F0D5
:100ED000D9C0D6C0883909F4C7C0A8F4883709F446
:100EE00067C038F4883609F463C0803709F460C0FD
:100EF000C9C0883809F4B8C0803909F45FC08038A7
:100F000009F0C0C05BC0803B09F486C038F4803A69
:100F100009F466C0883A09F47FC0B4C0803C09F483
:100F2000A7C0883C09F4A4C0883B09F48AC0AAC0C1
:100F300080916D0310C090918F0380918E0398175C
:100F400070F5E0918F0381E08E0F80938F03F0E0C6
:100F5000E259FC4F80818093BB0085EC86C0809372
:100F600090038EC0E0918F0381E08E0F80938F03FA
:100F70008091BB00F0E0E259FC4F808390918F0399
:100F800080918E036EC0E0918F0381E08E0F80937D
:100F90008F038091BB00F0E0E259FC4F8083809189
:100FA000910381116DC081E080936C0384EA61C07C
:100FB00083E08093920310927802CFCF80917802E1
:100FC000803208F051C0E091780281E08E0F80936A
:100FD00078028091BB00F0E0E85AFD4F8083BDCFDE
:100FE00085EC8093BC00109292038091780280324D
:100FF00030F4E0917802F0E0E85AFD4F1082609101
:10100000780270E0E0915602F091570288E592E094
:1010100009951092780236C084E080939203109272
:10102000550210925402E0915202F0915302099538
:1010300080915402811105C081E080935402109286
:101040003202E091550281E08E0F80935502F0E06C
:10105000EE5CFD4F80818093BB00909155028091A2
:101060005402981708F479CF85E88093BC000AC031
:1010700085EC8093BC001092920304C01092900300
:101080000E94C003FF91EF91BF91AF919F918F910B
:101090007F916F915F914F913F912F910F900FBE74
:1010A0000F901F9018951092920381E08093910306
:1010B00010926C0361E082E10E94A80561E083E187
:1010C0000E94A805E9EBF0E080818E7F808380811B
:1010D0008D7F808380E28093B80085E48093BC009C
:1010E00008951F920F920FB60F9211248F930FB68F
:1010F000F894A895809160008861809360001092B8
:1011000060000FBE8F910F900FBE0F901F9018952B
:101110004115510529F4EAE7F0E080818F7780835B
:101120006A307105A9F063FD02C088E001C088E261
:101130006770682B88E10FB6F894A89580936000DB
:101140000FBE60936000E0E6F0E080818064808301
:10115000232BA1F483B7817F846083BFF89483B786
:10116000816083BF85B7806685BF8F7D85BF78949A
:10117000889583B78E7F83BF78940EC083B7817FB5
:10118000846083BFF89483B7816083BF7894889527
:1011900083B78E7F83BF7894452B29F4EAE7F0E08C
:1011A00080818068808308951F920F920FB60F92FE
:1011B00011242F933F934F935F936F937F938F935C
:1011C0009F93AF93BF93EF93FF93E091AA01F091A8
:1011D000AB01309709F451C0968DA685B7858585FA
:1011E00091FF04C09C91892329F447C09C918923D5
:1011F00009F043C0A389B4899C918589809589238E
:101200008C93868997890197F1F7608D718DA685FA
:10121000B785558538E020E0CB010197F1F7822FA3
:1012200090E095958795282F4C91452309F02068EB
:10123000315091F7868D81FD20958091A90190E034
:1012400001968F7399273091A801381749F0A09122
:10125000A901B0E0AE50BE4F2C938093A90103C00A
:10126000868D8160868F828D938D0197F1F7A3899A
:10127000B4899C918589892B8C93FF91EF91BF91C3
:10128000AF919F918F917F916F915F914F913F911E
:101290002F910F900FBE0F901F901895E091AA010B
:1012A000F091AB01E817F90769F4A389B4899C911F
:1012B0008589809589238C931092AB011092AA01A5
:1012C00081E0089580E00895CF93DF93D82FC62F53
:1012D00088E60E94EF0B6D2F83E594E00E944E0498
:1012E0006C2F83E594E00E944E04DF91CF910C9423
:1012F0008D0BDF92EF92FF920F931F93CF93DF93AB
:10130000CDB7DEB728970FB6F894DEBF0FBECDBFBE
:101310008C0188E60E94EF0B80E090E00E94EA0BCF
:101320000E948D0B67E070E088E690E00E94F90B68
:10133000CE0101967C0120E0D12C83E594E0288742
:101340000E940204982F9F702885253079F484FB31
:10135000332730F9330F432F440F440F340F930FCB
:101360009E83D82EDD1CDD24DD1C08C082958F7085
:10137000EAE08E9F900D1124F70190832F5FFFEF1D
:10138000EF1AFF0A2730C9F62F8131E0822F90E053
:10139000D31203C08053984F02C08459984F3981AB
:1013A000F80130833A8131833B8132833D8133833D
:1013B0003E813483968385838C8187832287289618
:1013C0000FB6F894DEBF0FBECDBFDF91CF911F9156
:1013D0000F91FF90EF90DF900895CF93DF9380EC13
:1013E00094E00E943A0581E493E00E947F0B8FE233
:1013F00093E00E945E0BCCEAD1E08A819B810E943F
:10140000B00D8FE193E00E945E0B6C8170E080E094
:1014100090E04AE00E94990C80EC94E00E943A052A
:1014200080E193E00E945E0B8D819E810E94B00D51
:1014300080E093E00E945E0B8F8198850E94B00D42
:101440008CEE92E00E945E0B698570E080E090E097
:101450004AE00E94990C80EC94E00E943A058BEDE2
:1014600092E00E945E0B6A857B858C859D850E943B
:10147000DC0C8AEC92E00E945E0B6E857F85888989
:1014800099890E94DC0C8DEB92E00E945E0B6A89C8
:101490007B898C899D89DF91CF910C94DC0C61E074
:1014A00080E10C94A80561E081E10C94A80561E05D
:1014B0008AE00C94A8051F920F920FB60F92112488
:1014C0000E94570A88E198E00FB6F894A895809397
:1014D00060000FBE90936000F7CF61E084E00E944F
:1014E000A80564EC79E080E090E00C9447060E9447
:1014F000570A61E08BE00E94A8050E94530A0E94EF
:101500004F0A61E08DE00E94A80561E088E00E943A
:10151000A80561E087E00E94A80561E083E00C94E3
:10152000A80560E08AE00E94A80560E08BE00E94C8
:10153000A80560E081E10E94A80560E080E10E94CA
:10154000A80560E08DE00E94A80560E088E00E94A8
:10155000A80560E087E00E94A80560E083E00C94A5
:10156000A8051F93CF93DF93D82F162FC0E0CD1778
:10157000E9F061E089E00E94A805112329F064E602
:1015800070E080E090E004C064E170E080E090E012
:101590000E94470660E089E00E94A80564E670E0CA
:1015A00080E090E00E944706CF5FE1CFDF91CF91CE
:1015B0001F91089561E081E00E94B10AE8988FEBE5
:1015C00093E090930101809300018FB7F894E1E6D6
:1015D000F0E090E8908310821092E0048FBF81E0E9
:1015E0008093C20108958F929F92AF92BF92CF9243
:1015F000DF92EF92FF92CF93DF93A091B5048823FF
:1016000011F03A2F01C030E08091B60490E0880FCD
:10161000991F8A579C4FC090BB04D090BC04E090A7
:10162000BD04F090BE0440E050E0BA01FC01C59159
:10163000D49128812A2323130FC04A015B012FEF85
:10164000821A920AA20AB20A4C155D056E057F0540
:1016500038F4B501A401EACF342F252FCB0104C003
:1016600030E020E080E090E0632F722FDF91CF9197
:10167000FF90EF90DF90CF90BF90AF909F908F90B2
:10168000089586EB93E00E946E03E6EBF3E0A289F7
:10169000B3898C918F7E8C93A289B3898C91877F3B
:1016A0008C93A289B3898C918F778C93A289B3890B
:1016B0008C918F7D8C93828D818F08950F931F93D2
:1016C000CF93DF938C01C0E0D0E0F801EC0FFD1F59
:1016D0006491662371F0E091C004F091C10401901F
:1016E000F081E02D80EC94E00995892B11F0219692
:1016F000ECCFCE01DF91CF911F910F910895CF9341
:10170000DF930E945E0BEC0180EC94E00E943A05AE
:101710008C0F9D1FDF91CF9108952091B50390917B
:10172000E104213208F04AC0809192038111FCCF7C
:1017300032E03093920331E0309391033FEF3093E6
:10174000900310928F0320938E03A5E9B3E04EE639
:1017500053E0FA013E2F341B321718F43D913193B8
:10176000F9CF10926D0320916D03990F922B9093F6
:101770006D0390916C03913061F410926C03909121
:101780006D039093BB009091BC0093FDF8CF95EC56
:1017900001C095EE9093BC00909192039230E1F3DA
:1017A000909190039F3F79F080919003803241F0B7
:1017B00080919003803331F084E005C081E003C064
:1017C00082E001C083E0109294031092B50310925E
:1017D00093030895682F83E594E00C944E0491E000
:1017E000909393038093E104109294031092B503B5
:1017F0000895909192039111FCCF613208F060E25C
:1018000091E090939203909391032FEF2093900394
:1018100010928F03260F20938E0390936D03909167
:101820006D03880F892B80936D0380916C03813049
:1018300061F410926C0380916D038093BB008091E2
:10184000BC0083FDF8CF85EC01C085EE8093BC0021
:10185000809192038130E1F380918F03861710F419
:1018600060918F03AEE6B3E02CE433E0F9018E2FF4
:10187000821B861718F48D918193F9CF10924B0338
:1018800060934A03862F0895CF92DF92EF92FF92E2
:101890000F931F93CF93DF9302E812E0C0E0D0E0F4
:1018A0000E9481066093BE037093BF038093C003C0
:1018B0009093C103E091B603F091B7030680F781DE
:1018C000E02D86EB93E0099597FD04C08A309105E1
:1018D000F9F425C00E948106C090BE03D090BF03DA
:1018E000E090C003F090C103DC01CB018C199D098D
:1018F000AE09BF09C090BA03D090BB03E090BC030F
:10190000F090BD038C159D05AE05BF0598F207C08C
:10191000F80181938F012196C83CD10509F6CE01CB
:10192000DF91CF911F910F91FF90EF90DF90CF90BB
:1019300008958F929F92AF92BF920F931F93CF9370
:10194000DF93CDB7DEB7A1970FB6F894DEBF0FBE19
:10195000CDBF19A2423008F44AE08E010F5D1F4F3F
:10196000842E912CA12CB12CA50194010E94041E5F
:10197000E62FB901CA0101501109EA3014F4E05D03
:1019800001C0E95CD801EC93232B242B252B61F7B4
:10199000B80180EC94E00E942505A1960FB6F8945A
:1019A000DEBF0FBECDBFDF91CF911F910F91BF90D2
:1019B000AF909F908F9008954F925F926F927F9219
:1019C0008F929F92AF92BF92CF92DF92EF92FF924F
:1019D0006B017C019B01AC010E94FF1F882319F061
:1019E00069E971E01AC046015701E894B7F82FEF92
:1019F0003FEF4FE75FE7C501B4010E94FF1F811170
:101A000012C02FEF3FEF4FE75FE7C501B4010E941F
:101A1000E526181644F46DE971E080EC94E00E942C
:101A200025057C018AC02FEF3FEF4FE75FE4C70138
:101A3000B6010E94EE1F18161CF461EA71E0EDCFAA
:101A40002FEF3FEF4FE75FECC701B6010E94E5269D
:101A500087FDF3CF20E030E0A901C701B6010E9465
:101A6000E52687FF11C0E091C004F091C104019008
:101A7000F081E02D6DE280EC94E009955C01F7FACD
:101A8000F094F7F8F09402C0A12CB12C2AE037EDC5
:101A900043EA5BE3C701B6010E94411E2B013C01F2
:101AA0000E94981F6B017C010E94EA269B01AC01F9
:101AB000C301B2010E94401E2B013C014AE0C70154
:101AC000B6010E94990C7C01EA0CFB1C65EA71E0EE
:101AD00080EC94E00E942505E80EF91E20E030E03D
:101AE00040E251E4C301B2010E944B272B013C01AB
:101AF0000E94981F4B01A12CB12C4AE0C501B401F2
:101B00000E94990CE80EF91EC501B4010E94EA2654
:101B10009B01AC01C301B2010E94401E20E030E0F5
:101B200040E251E40E944B270E94981F80E090E021
:101B30004AE00E94990CE80EF91E80EC94E00E94A5
:101B40003A058E0D9F1DFF90EF90DF90CF90BF90D4
:101B5000AF909F908F907F906F905F904F9008957F
:101B6000CF93DF93BC0180E090E04AE00E94990CA3
:101B7000EC0180EC94E00E943A058C0F9D1FDF91F0
:101B8000CF910895CF92DF92EF92FF920F931F9320
:101B9000CF93DF93CDB7DEB7C054D1400FB6F894E2
:101BA000DEBF0FBECDBF0E9481060091B704109129
:101BB000B8042091B9043091BA046B017C01C01AB9
:101BC000D10AE20AF30A40EDC41647E0D406E10464
:101BD000F10418F48091BF04BCC06093B704709303
:101BE000B8048093B9049093BA041092B20410928E
:101BF000B1041092B0041092AF041092AE0461E0F0
:101C00008091B3040E94A8056AEF70E080E090E044
:101C10000E94470661E08091B3040E94F40560E0F1
:101C20008091B3040E94A80564E170E080E090E038
:101C30000E944706F89461E08091B3040E94A805D1
:101C40008CE490E00197F1F762E08091B3040E9488
:101C5000F40580E190E00197F1F780E00E94F30A3B
:101C6000672B682B692B21F41092BF0478943EC037
:101C700081E00E94F30A672B682B692BA9F38E0180
:101C80000F5F1F4F6E018FEBC81A8EEFD80A7801D5
:101C900080E00E94F30AF70160837183828393835B
:101CA00081E00E94F30AF70164837583868397833A
:101CB000F8E0EF0EF11CEC14FD0451F7789420E0ED
:101CC00030E0F8014081518162817381C480D58008
:101CD000E680F780411551056105710529F0C114B1
:101CE000D104E104F10421F41092BF0480E031C07A
:101CF000F90183E0F595E7958A95E1F7E255FB4F09
:101D00008081880F4C155D056E057F0508F48160A4
:101D100080832F5F3F4F085F1F4F2832310589F6C0
:101D20002091B20430E04091AE048091AF0490E085
:101D3000840F911D4091B004840F911D4091B10416
:101D4000840F911D99272817390771F681E0809338
:101D5000BF04C05CDE4F0FB6F894DEBF0FBECDBF30
:101D6000DF91CF911F910F91FF90EF90DF90CF9077
:101D70000895EF92FF920F931F93CF93DF938C01FF
:101D8000F62E87E70E94EF0BF801608183E594E06F
:101D90000E944E040E948D0B8093AD04811122C0DD
:101DA000CF2D0F2C000CDD0BBE0187E790E00E94C9
:101DB000F90B20914A0330E080914B03281B310935
:101DC0002C173D07E9F7E02EC02FD12F8C2F8E194D
:101DD0008F1534F483E594E00E9402048993F6CFD2
:101DE00081E001C080E0DF91CF911F910F91FF90C2
:101DF000EF9008950F931F93CF93DF9300D0CDB74B
:101E0000DEB78B01898362E0CE0101960E94B90E94
:101E1000882359F0898190E0982F88272A81822B86
:101E2000F8019183808381E003C0F8011182108260
:101E30000F900F90DF91CF911F910F9108950F9305
:101E40001F93CF93DF9300D0CDB7DEB78B0189838B
:101E500062E0CE0101960E94B90E882359F0898173
:101E600090E0982F88272A81822BF8019183808324
:101E700081E003C0F801118210820F900F90DF9172
:101E8000CF911F910F910895CF93DF93CDB7DEB718
:101E9000EC970FB6F894DEBF0FBECDBF789484B533
:101EA000826084BD84B5816084BD85B5826085BD56
:101EB00085B5816085BD80916E00816080936E00E4
:101EC00010928100809181008260809381008091D6
:101ED0008100816080938100809180008160809387
:101EE00080008091B10084608093B1008091B00047
:101EF00081608093B00080917A00846080937A0042
:101F000080917A00826080937A0080917A008E7F3F
:101F100080937A0080917A00806880937A00109292
:101F2000C1008FB7F89490E890936100109261001F
:101F30001092E0048FBF61E084E00E94F40560E04D
:101F400084E00E94A8050E94410B61E081E00E94AC
:101F5000F40560E084E00E94A80561E08BE00E9447
:101F6000F40561E08AE00E94F40561E081E10E94ED
:101F7000F40561E080E10E94F40561E087E00E94E1
:101F8000F40561E083E00E94F40561E088E00E94CE
:101F9000F40561E08DE00E94F40560E082E00E94BB
:101FA000F40561E089E00E94F4051092810010922E
:101FB00085001092840081E08093B10015E00E94BA
:101FC000770A68EC70E080E090E00E9447060E948B
:101FD000910A68EC70E080E090E00E9447061150A2
:101FE00071F760E085E00E94B10A1092DB04109264
:101FF000DA041092D9041092D8041092D7041092E7
:10200000D6048DEC90E09093DD048093DC049091F5
:10201000CC04963108F057C025E530E03093D70462
:102020002093D6042BEC30E03093D9042093D804CD
:1020300020E930E03093DB042093DA04209168003B
:10204000983050F031E09E3008F430E081E001C07B
:10205000880F3A95EAF701C084E0822B80936800EC
:10206000983038F09E3040F0963148F020E030E073
:1020700008C02DE630E005C02BE630E002C02CE6BB
:1020800030E03093D4042093D304983030F481E0CE
:1020900001C0880F9A95EAF70EC0292F30E09E30D4
:1020A00018F42850310902C02E50310981E001C0D6
:1020B000880F2A95EAF78093D5048091DC049091EB
:1020C000DD040197F1F78091DA049091DB04892B0C
:1020D00021F18091AA019091AB0124E0803C92070C
:1020E000E1F0009711F00E944E098091DE048E7F8E
:1020F0008093DE041092A9011092A80180EC94E074
:102100009093AB018093AA01E091D304F091D404A1
:1021100090818091D504892B808388EC90E00E9487
:102120007F0B8DEB90E00E945E0B81EB90E00E94B4
:102130005E0B8EEA90E00E945E0B85EA90E00E94C2
:102140005E0B8AEA95E59093AD018093AC018BE03C
:1021500092E09093AF018093AE0182E08093B00152
:1021600088E295E09093B2018093B10180EE91E016
:102170009093B4018093B30185E08093B50180E032
:1021800090E0A0E6B0E48093B6019093B701A093ED
:10219000B801B093B90183E393E3A3E5B0E480937E
:1021A000BA019093BB01A093BC01B093BD0180E044
:1021B00090E0A0EABFE38093BE019093BF01A0939B
:1021C000C001B093C1010E94ED090E946D0A1092F6
:1021D0004B0310924A03109294031092B5030E948D
:1021E000530864E08EE00E94640983EE91E00E944F
:1021F00079098091E8019091E901803E974094F43B
:1022000086E990E00E947F0B61E08AE00E94B10ABB
:1022100020E030E040E050E06AE070E084EC91E0E3
:102220000E94880860E084E00E94A80581E0809315
:10223000C20142E852E048534CAF8091C20188236A
:1022400009F492C68091F0019091F1010197C9F4CF
:102250000E94910A1AE00E94570A64E670E080E04A
:1022600090E00E94470660E08AE00E94A80564E6CC
:1022700070E080E090E00E944706115061F70E94F4
:10228000570A99E288E10FB6F894A8958093600008
:102290000FBE909360008EEA92E00E947F0B109236
:1022A000C2011092EF011092EE018DE992E00E94BE
:1022B0007F0B0E946D0A83EE91E00E947909A89538
:1022C000C090BE01D090BF01E090C001F090C1016C
:1022D000C8AAD9AAEAAAFBAA8091B501E82EF12CD6
:1022E000FBA6EAA60E94810686E0809381000E94F8
:1022F000810628EE33E0E29EA001E39E500DF29E9F
:10230000500D11248A01550F220B330B6B017C01F8
:10231000C00ED11EE21EF31ECCAADDAAEEAAFFAAB1
:10232000A89510924B0310924A03109294031092B6
:10233000B5030E94530863E674E08AEA0E94FA0E2D
:10234000882309F447C065E674E08CEA0E94FA0E1F
:10235000882309F43FC067E674E08EEA0E94FA0E13
:102360008823C1F163E774E080EB0E941F0F88238C
:1023700089F165E774E082EB0E941F0F882351F119
:1023800067E774E084EB0E941F0F882319F169E668
:1023900074E086EB0E94FA0E8823E1F06BE674E0AD
:1023A00088EB0E94FA0E8823A9F06DE674E08AEBB0
:1023B0000E94FA0E882371F06FE674E08CEB0E94A5
:1023C000FA0E882339F061E774E08EEB0E94FA0E72
:1023D0008111A2C662E08091B3040E94F40520E35B
:1023E00038EF4FEF5FEF2093B7043093B80440937A
:1023F000B9045093BA048FE195E8ABE6BFE380934C
:102400005F0490936004A0936104B09362048EE132
:102410000E94EF0B81E090E00E94EA0B80E290E0E6
:102420000E94EA0B0E948D0B8EE10E94EF0B82E06E
:1024300090E00E94EA0B80E090E00E94EA0B0E948C
:102440008D0B84E10E943006BC01990F880B990B1B
:102450000E94EC269B01AC0160E070E080E295E414
:102460000E941F1F6093DB017093DC018093DD01EC
:102470009093DE0184E10E943006BC01990F880B25
:10248000990B0E94EC269B01AC0160E070E080E2B9
:1024900095E40E941F1F6093DB017093DC01809321
:1024A000DD019093DE0185E10E9430069093D40116
:1024B0008093D3018FE00E9430069093DA018093DD
:1024C000D90114EF19838EE28A8387E70E94EF0B0C
:1024D00042E050E0DE0111961D01BD0183E594E06C
:1024E0000E941E040E948D0B8093AD0481116BC16C
:1024F000A89565E070E080E090E00E94470606EF56
:10250000098362E0C1010E94B90E882309F45BC10E
:10251000698170E080E090E00E94EC2620E030E0ED
:1025200040E853E40E944B276B017C016A8170E014
:1025300080E090E00E94EC269B01AC01C701B6014F
:102540000E94411E20917D0430917E0440917F04C1
:10255000509180040E94401E2091790430917A04A9
:1025600040917B0450917C040E944B276B017C01BD
:10257000209185043091860440918704509188040D
:102580000E94411E9B01AC01609181047091820404
:1025900080918304909184040E941F1F9B01AC01D1
:1025A000C701B6010E94411E6CA77DA78EA79FA7F9
:1025B00019831A8387E70E94EF0B42E050E0B101D4
:1025C00083E594E00E941E040E948D0B8093AD046D
:1025D0008111F9C0A8956AE170E080E090E00E9466
:1025E0004706098363E0C1010E94B90E882309F4FC
:1025F000EAC020E030E048EC51E46CA57DA58EA552
:102600009FA50E94401E6B017C019B01AC010E94B2
:102610004B272B013C01698170E080E090E00E9433
:10262000EC2620E030E040E853E40E944B274B01C9
:102630005C016A8170E080E090E00E94EC269B01E2
:10264000AC01C501B4010E94411E4B015C016B81CC
:1026500070E080E090E00E94EC2620E030E040E86E
:102660005BE30E944B279B01AC01C501B4010E94B2
:10267000411E4B015C0120919104309192044091E4
:10268000930450919404C301B2010E944B2768AF98
:1026900079AF8AAF9BAF20918D0430918E04409129
:1026A0008F0450919004C701B6010E944B279B01F3
:1026B000AC0168AD79AD8AAD9BAD0E94411E209101
:1026C000890430918A0440918B0450918C040E94BB
:1026D000411E9B01AC01C501B4010E94401E4B018B
:1026E0005C0120919D0430919E0440919F04509183
:1026F000A004C301B2010E944B272B013C01209191
:10270000990430919A0440919B0450919C04C70114
:10271000B6010E944B279B01AC01C301B2010E948C
:10272000411E209195043091960440919704509158
:1027300098040E94411E9B01AC01C501B4010E9496
:102740001F1F6B017C019B01AC010E944B27209154
:10275000A9043091AA044091AB045091AC040E94AA
:102760004B274B015C012091A5043091A6044091B8
:10277000A7045091A804C701B6010E944B279B01F2
:10278000AC01C501B4010E94411E2091A104309109
:10279000A2044091A3045091A4040E94411ECCA421
:1027A000DDA4EEA4FFA4C092CB01D092CC01E092B4
:1027B000CD01F092CE016093CF017093D001809350
:1027C000D1019093D2010E94C20D882309F44BC01D
:1027D0008091B4048B3039F180F18551823068F5F5
:1027E0006091AE0470E080E090E00E94EA2620E074
:1027F00030E040E853E40E944B276B017C0160917C
:10280000AF0470E080E090E00E94EC269B01AC01F8
:10281000C701B6010E94411E2DEC3CEC4CEC5DE37F
:102820000E944B2707C06091AE0470E080E090E00A
:102830000E94EA266B017C0106C0C12CD12CB0ECB1
:10284000EB2EBFE7FB2EA7019601C701B6010E9440
:10285000FF1F811108C0C092D501D092D601E0922D
:10286000D701F092D8010E94C20D882309F456C006
:102870008091B4048B3029F0D8F18551823058F022
:1028800037C06091B00470E080E090E00E94EA26DA
:102890006B017C0133C01091B004612F6F7770E041
:1028A00080E090E00E94EC2620E030E040E853E435
:1028B0000E944B276B017C016091B10470E080E0C5
:1028C00090E00E94EC269B01AC01C701B6010E947A
:1028D000411E2DEC3CEC4CEC5DE30E944B276B0160
:1028E0007C0117FF0BC0F7FAF094F7F8F09406C0DC
:1028F000C12CD12CA0ECEA2EAFE7FA2EA70196014D
:10290000C701B6010E94FF1F811108C0C092C70114
:10291000D092C801E092C901F092CA018EE10E94F2
:10292000EF0B83E090E00E94EA0B0E948D0B8EE19A
:102930000E94EF0B66E070E08EE190E00E94F90BE0
:1029400080914A0390E020914B03821B91090697E6
:1029500009F44FC00E948D0B0FB6F894DEBF0FBE76
:10296000CDBFC0905F04D0906004E0906104F0900F
:10297000620469A170E0762F66278AA1682B072E72
:10298000000C880B990B0E94EC26A70196010E946F
:102990004B274B015C016DA170E0762F66278EA15D
:1029A000682B072E000C880B990B0E94EC26A701C0
:1029B00096010E944B27A50194010E94C01E24E6A7
:1029C00032E84AE85FE30E94401E6B017C0120E090
:1029D00030E0A9010E94E52687FF16C02BED3FE0FD
:1029E00049EC50E4C701B6010E94411E6B017C0115
:1029F0000BC0F12C83E594E00E940204F39456E0AE
:102A0000D52EFD10F7CFA6CF2BED3FE049EC50E4DB
:102A1000C701B6010E94EE1F181654F42BED3FE0DB
:102A200049EC50E4C701B6010E94401E6B017C01D5
:102A300021EE3EE245E652E4C701B6010E944B2773
:102A40000E94911F7093E0016093DF010E94810654
:102A5000CCA8DDA8EEA8FFA86C157D058E059F0506
:102A600010F4A895F3CF20918400309185008CE379
:102A700090E06AA57BA50E94F01DCB01829FB0016A
:102A8000839F700D929F700D112480E090E00E9452
:102A9000EA2628A939A94AA95BA90E944B270E94C6
:102AA000981F7093E2016093E101109281001092EF
:102AB00085001092840060E084E00E94A80580EC0C
:102AC00094E00E943A0586E591E00E947F0B809198
:102AD000E3011F928F938091E4011F928F93809165
:102AE000E5011F928F938091E6011F928F93809151
:102AF000E7011F928F938091E9018F938091E80104
:102B00008F9384E391E09F938F931F9288EC8F9330
:102B1000A2E8B2E0BF93AF930E94092062E872E09E
:102B200080EC94E00E943E0586E491E00E945E0BFA
:102B3000C090EE01D090EF010D2C000CEE08FF08C4
:102B40000FB6F894DEBF0FBECDBFF7FE14C0E09104
:102B5000C004F091C1040190F081E02D6DE280ECA1
:102B600094E0099566277727CB016C197D098E09BA
:102B70009F094AE003C04AE0C701B6010E94990CD0
:102B800080EC94E00E943A058EE391E00E945E0B97
:102B90006091DB017091DC018091DD019091DE019B
:102BA0000E94DC0C83E391E00E945E0B8091DF01C8
:102BB0009091E0010E94B00D85E291E00E945E0BD1
:102BC0008091E1019091E2010E94B00D89E191E0D4
:102BD0000E945E0B6091CB017091CC018091CD0180
:102BE0009091CE010E94DC0C8DE091E00E945E0B82
:102BF0006091C7017091C8018091C9019091CA018B
:102C00000E94DC0C82E091E00E945E0B6091CF019B
:102C10007091D0018091D1019091D2010E94DC0C81
:102C200084EF90E00E945E0B8091D3019091D401DB
:102C30000E94B00D89EE90E00E945E0B6091D5017C
:102C40007091D6018091D7019091D8010E94DC0C3F
:102C50002091BA013091BB014091BC015091BD015E
:102C60006091DB017091DC018091DD019091DE01CA
:102C70000E94EE1F18160CF087C080E992E00E94B7
:102C80007F0B0FB6F894A8958091600088618093BF
:102C90006000109260000FBE60E084E00E94A80512
:102CA00068EE73E080E090E00E9447060E94410BCE
:102CB000E091C603F091C70382E08083E091C203F4
:102CC000F091C3031082E091C403F091C50387E63D
:102CD00080831092CE03E091CA03F091CB0386E08B
:102CE0008083E091C803F091C90380818061808373
:102CF000E091C803F091C903808188608083E091EE
:102D0000C803F091C903808180688083E091C80383
:102D1000F091C90380818F7D80830E946D0A60EDF0
:102D200077E080E090E00E9447061092820280E205
:102D30009EE4A0E0B0E08093BA039093BB03A0931D
:102D4000BC03B093BD0386EB93E00E94F00218161B
:102D500019062CF486EB93E00E94CE02F4CF86EBAA
:102D600093E00E946E0366E571E086EB93E00E94BB
:102D70003E050E94440C18160CF0EBC280918202B2
:102D80008F3609F0E6C2FFC28AE792E00E947F0B0D
:102D9000A8950E94ED09A89581E692E00E947F0B1C
:102DA000A8950E946D0A88E60E94EF0B6FE083E50C
:102DB00094E00E944E040E948D0B61E070E088E672
:102DC00090E00E94F90B83E594E00E940204682FD2
:102DD0006D7F8FE00E9464091091B001CE010196D1
:102DE0000E9479098A81612F0E94E41D189F600D5D
:102DF00011246C3308F06C531A8E81E08B8F8C8F0A
:102E00008D8F6FA318A619A688E60E94EF0B8BE0A2
:102E100090E00E94EA0BE12CF12C1AE022E0E2168D
:102E2000F10419F480EC90E01BC0E7E2F0E0EC0F55
:102E3000FD1FEE0DFF1D8081612F0E94E41D292FD3
:102E400030E1839F200D1124EAE1F0E0EC0FFD1F3B
:102E5000EE0DFF1D808140E8849FC0011124822B6C
:102E60000E94EA0B5FEFE51AF50A83E0E816F10429
:102E7000A9F60E948D0B66E08EE00E94640960E076
:102E800084E00E94A8050FB6F894A8958091600090
:102E9000886180936000109260000FBE2091E50170
:102EA0008091E40190E0ACE32A9F800D911D1124F4
:102EB0009093C6018093C5012091B1013091B20178
:102EC0002817390738F02091B3013091B4018217E7
:102ED000930788F52091D3013091D4018091AE0100
:102EE0009091AF0128173907E8F42091B60130918D
:102EF000B7014091B8015091B9016091DB01709127
:102F0000DC018091DD019091DE010E94EE1F181618
:102F10004CF481E090E09093F1018093F0018BE418
:102F200092E00FC082E090E09093F1018093F00175
:102F300084E392E006C01092F1011092F00189E260
:102F400092E00E947F0B8AED9AE0909301018093BA
:102F50000001809169008C7F826080936900E89A0B
:102F600061E082E00E94B10A8091F0019091F1014C
:102F70008130910589F08230910519F0892B09F093
:102F8000C8C00E94910A88E092E00E947F0B20E076
:102F900030E040E050E0B7C020E030E0A9016091AF
:102FA000C7017091C8018091C9019091CA010E9426
:102FB000E52618161CF50E94910A0E94570A2DEC6E
:102FC0003CEC4CEC5DE36091B6017091B7018091EF
:102FD000B8019091B9010E94411E9B01AC01609122
:102FE000DB017091DC018091DD019091DE010E9496
:102FF000EE1F9091C3011816ACF047C01AE00E9472
:10300000770A64E670E080E090E00E9447060E9444
:10301000910A64E670E080E090E00E94470611505B
:1030200071F7C9CF9130C1F080F09230F9F0933050
:1030300049F50E944F0A61E088E00E94A80561E01E
:103040008DE00E94A80584E00EC00E944F0A61E056
:103050008BE00E94A80522C00E94530A61E08BE029
:103060000E94A80582E08093C30126C00E94530AF3
:1030700061E087E00E94A80561E083E00E94A80566
:1030800083E0F1CF0E94770A15C0992329F091308F
:1030900039F40E94530AE6CF0E944F0A81E0E3CF41
:1030A0000E94530A61E087E00E94A80561E083E086
:1030B0000E94A8051092C3018FEE91E00E947F0B41
:1030C0002DEC3CEC4CEC5DE36091B6017091B701E6
:1030D0008091B8019091B9010E94411E9B01AC0101
:1030E0006091DB017091DC018091DD019091DE0146
:1030F0000E94EE1F20E030E040E050E018161CF483
:1031000069E070E002C06AE070E084EC91E00E9447
:1031100088080E94900391C86091670470916804C8
:10312000072E000C880B990B0E94EC2620E030E063
:1031300040EA5BE30E944B272B013C016091730442
:103140007091740480E090E00E94EA262FE632E15C
:1031500043E053E30E944B276B017C0160916904BB
:1031600070916A04072E000C880B990B0E94EC26C4
:1031700020E030E048EC57E30E944B274B015C0114
:10318000609175047091760480E090E00E94EA26D8
:103190002DEC3CEC4CE454E30E944B276093790403
:1031A00070937A0480937B0490937C0460917704FD
:1031B0007091780480E090E00E94EA2660937D049C
:1031C00070937E0480937F049093800460916F04D9
:1031D00070917004072E000C880B990B0E94EC264E
:1031E0002AE037ED43EA5DE30E944B2760938104B8
:1031F000709382048093830490938404609171049B
:1032000070917204072E000C880B990B0E94EC261B
:1032100020E030E040E253E40E941F1F60938504E9
:10322000709386048093870490938804609163046C
:1032300070916404072E000C880B990B0E94EC26F9
:103240006093890470938A0480938B0490938C0418
:103250006091650470916604072E000C880B990B31
:103260000E94EC2620E030E040EA5CE30E944B271D
:1032700060938D0470938E0480938F0490939004D8
:1032800060916B0470916C04072E000C880B990BF5
:103290000E94EC2620E030E048E45AE30E944B27ED
:1032A0006093910470939204809393049093940498
:1032B00020E030E040E057E4C701B6010E944B2710
:1032C0006093950470939604809397049093980468
:1032D000A3019201C701B6010E944B276093990494
:1032E00070939A0480939B0490939C04A50194018D
:1032F000C701B6010E944B2760939D0470939E0402
:1033000080939F049093A0048CEE91E5A7E1B0E434
:103310008093A1049093A204A093A304B093A40467
:1033200080E394E3AEE7BFE38093A5049093A60403
:10333000A093A704B093A80480E097E5A4E9B6E3BE
:103340008093A9049093AA04A093AB04B093AC0417
:1033500041C88DEA91E00E947F0B0E94410B61E021
:1033600081E00E94F40560E084E00E94A805A89531
:1033700099E288E10FB6F894A895809360000FBE9B
:103380009093600006CD8EED91E00E947F0B8091BE
:10339000E3011F928F938091E4011F928F9380919C
:1033A000E5011F928F938091E6011F928F93809188
:1033B000E7011F928F938091E9018F938091E8013B
:1033C0008F938CE591E09F938F938FEF8F9318EC01
:1033D0001F93A2E8B2E0BF93AF930E940920E2E8F6
:1033E000F2E001900020E9F731979F012258324026
:1033F0007901B12EB21A6091C7017091C801809114
:10340000C9019091CA01810121E043E00E94B722E5
:103410003F922F928BE7C82E81E0D82EDF92CF9279
:103420008B2D0B2C000C990B9F93BF928E2DEE0CC5
:10343000990B8E579D4F9F938F930E940920E2E82E
:10344000F2E001900020E9F73197AF014258524075
:103450007A01B41A6091CB017091CC018091CD01B9
:103460009091CE0121E043E00E94B7223F922F923B
:10347000DF92CF928B2D0B2C000C990B9F93BF9258
:103480008E2DEE0C990B8E579D4F9F938F930E941C
:103490000920E2E8F2E001900020E9F73197CF013E
:1034A000825892407C01B81A0FB6F894DEBF0FBE66
:1034B000CDBF6091CF017091D0018091D1019091E9
:1034C000D20121E043E00E94B7223F922F92DF9287
:1034D000CF928B2D0B2C000C990B9F93BF928E2DAE
:1034E000EE0C990B8E579D4F9F938F930E9409204E
:1034F000E2E8F2E001900020E9F73197E258F2406B
:103500001B2D1E1B8091D4018F938091D3018F932B
:1035100098E8A92E91E0B92EBF92AF92812F012E8B
:10352000000C990B9F931F930E2E000CFF0BEE5770
:10353000FD4FFF93EF930E940920E2E8F2E0019033
:103540000020E9F731979F01225832407901F12E8E
:10355000FE186091D5017091D6018091D7019091AC
:10356000D801810121E043E00E94B7223F922F92CF
:10357000DF92CF928F2D0F2C000C990B9F93FF920F
:103580008E2DEE0C990B8E579D4F9F938F930E941B
:103590000920E2E8F2E001900020E9F73197CF013D
:1035A000825892401F2D181B9091DA019F939091A1
:1035B000D9019F93BF92AF92212F012E000C330BA4
:1035C0003F931F93082E000C990B8E579D4F9F938E
:1035D0008F930E940920E2E8F2E001900020E9F7D1
:1035E0003197AF01425852407A01F12EFE180FB6C2
:1035F000F894DEBF0FBECDBF6091DB017091DC019E
:103600008091DD019091DE01810122E043E00E9482
:10361000B7223F922F92DF92CF928F2D0F2C000C6A
:10362000990B9F93FF928E2DEE0C990B8E579D4F09
:103630009F938F930E940920E2E8F2E0019000201E
:10364000E9F73197CF01825892409091EF019F9313
:103650009091EE019F939091F1019F939091F001D1
:103660009F939091E2019F939091E1019F9390919C
:10367000E0019F939091DF019F932FE731E03F930B
:103680002F93F81A2F2D0F2C000C330B3F93FF9222
:10369000082E000C990B8E579D4F9F938F930E947D
:1036A00009206CE871E080EC94E00E94250562E856
:1036B00072E080EC94E00E943E0520E2C22E2EE4EF
:1036C000D22EE12CF12CC092BA03D092BB03E0922F
:1036D000BC03F092BD0362E872E086EB93E00E94C7
:1036E0003E0586EB93E00E946E03109282020E94D8
:1036F000440C0FB6F894DEBF0FBECDBF18160CF009
:1037000068C1809182028F3609F063C181ED91E03A
:103710000E947F0B02E812E0F8011192CCACCE12AD
:10372000FCCF1092820220E23EE440E050E0209381
:10373000BA033093BB034093BC035093BD0369E5C8
:1037400071E086EB93E00E943E0586EB93E00E94D9
:103750006E030E94440C62E872E080EC94E00E94E8
:103760003E05809182028F3609F0F7CD83EA91E021
:103770000E945E0B62E872E080EC94E00E943E05DD
:1037800080E090E0D8012C91222381F02C3749F47D
:10379000E1E0F0E0EC0FFD1FE80FF11D90831C92BB
:1037A0008F5F9F5F0F5F1F4F983C61F78E3019F05E
:1037B00082E991E0D0CD898190E08D579D4F0E94A4
:1037C000DB228C018A8190E08D579D4F0E94DB2285
:1037D000D82E8B8190E08D579D4F0E94DB22C82E02
:1037E0008C8190E08D579D4F0E94DB22F82E8D81B9
:1037F00090E08D579D4F0E94DB22E82E8E8190E055
:103800008D579D4F0E94DB22B82E83EE91E00E94DF
:1038100079092091E5018091E40190E0BCE32B9FC0
:10382000800D911D11249093C6018093C501ECE396
:10383000FE9E900111242E0D311D821B930B97FFCC
:1038400003C091958195910906970CF43FC08DE7CF
:1038500091E00E947F0B8E89013DF7E01F071CF06D
:10386000005D10E802C00C5610E0BA8EEB8EFC8EA4
:103870008D8FCE8EDF8E08A388E60E94EF0B80E04E
:1038800090E00E94EA0B9E01265E3F4F790100E026
:103890004AE0D42EF70180816D2D0E94E41D30E1B5
:1038A000839F900D11249083053019F48F8D810F23
:1038B0008F8F4FEFE41AF40A608183E594E00E9451
:1038C0004E040F5F073031F70E948D0B8F8190E01F
:1038D0008D579D4F0E94DB229093AF018093AE01E4
:1038E000888590E08D579D4F0E94DB228093B00128
:1038F0008A8590E08D579D4F0E94DB229093B20104
:103900008093B101898590E08D579D4F0E94DB2205
:103910009093B4018093B3018B8590E08D579D4FB8
:103920000E94DB228093B5018C8590E08D579D4FDE
:103930000E94D7226B017C0120E030E040E450E49B
:103940000E94E52687FD09C0C092B601D092B7015A
:10395000E092B801F092B9010CC080E090E0A0E6DE
:10396000B0E48093B6019093B701A093B801B093EF
:10397000B9018D8590E08D579D4F0E94D7226B0134
:103980007C0120E030E040E450E40E94E52687FF1F
:1039900007C033E3C32EDC2C33E5E32E30E4F32EF3
:1039A000C092BA01D092BB01E092BC01F092BD017D
:1039B0008E8590E08D579D4F0E94D7226093BE0167
:1039C0007093BF018093C0019093C10180E791E0A3
:1039D000C2CC82EC91E0BFCC88E291E09093C1042C
:1039E0008093C00480EC94E00C944E091092B903CB
:1039F0001092B80388EE93E0A0E0B0E08093BA03A1
:103A00009093BB03A093BC03B093BD0328E031E0C7
:103A10003093B7032093B60325EC30E03093C30313
:103A20002093C20324EC30E03093C5032093C403F9
:103A300020EC30E03093C7032093C60321EC30E044
:103A40003093C9032093C80322EC30E03093CB03BA
:103A50002093CA0326EC30E03093CD032093CC03AF
:103A60001092CF031092D0031092D1031092D20380
:103A70001092560410925504809357049093580462
:103A8000A0935904B0935A0428E131E030935404D0
:103A90002093530426E02093B30426E12093B4043A
:103AA000EAEAF3E0E491E093B504E6E9F3E0E491B7
:103AB000E093B60440E45FE160E070E04093BB0453
:103AC0005093BC046093BD047093BE0440E050E08A
:103AD00060E87FE340935F04509360046093610467
:103AE00070936204209161002F702093DF04109284
:103AF000C3041092C2048093C4049093C504A0939D
:103B0000C604B093C70488E291E09093C104809307
:103B1000C0041092D7041092D6041092D9041092C7
:103B2000D8041092DB041092DA041092DD04109293
:103B3000DC046091DE046E7F6D7F6093DE04669529
:103B4000617081E068278CE00E94A80561E08CE04C
:103B50000E94F405E0EBF3E0E491E093D004ECE99B
:103B6000F3E0E491F0E0EE0FFF1FE458FC4F859185
:103B700094919093D2048093D10460E080E00E94FD
:103B8000F4058091DE0481FD04C061E080E00E94C4
:103B9000A8051092CC04E4EAF3E0E491E093CD04AC
:103BA000E0E9F3E0E491F0E0EE0FFF1FEA57FC4F8D
:103BB000859194919093CF048093CE04809161007D
:103BC0008F708093E0040895991B79E004C0991FD9
:103BD000961708F0961B881F7A95C9F78095089567
:103BE00097FB072E16F4009407D077FD09D00E94AA
:103BF000261E07FC05D03EF4909581959F4F0895B1
:103C0000709561957F4F0895A1E21A2EAA1BBB1BE8
:103C1000FD010DC0AA1FBB1FEE1FFF1FA217B30798
:103C2000E407F50720F0A21BB30BE40BF50B661FAE
:103C3000771F881F991F1A9469F760957095809572
:103C400090959B01AC01BD01CF010895AA1BBB1B40
:103C500051E107C0AA1FBB1FA617B70710F0A61B8C
:103C6000B70B881F991F5A95A9F780959095BC01AD
:103C7000CD010895EE0FFF1F0590F491E02D0994FA
:103C80005058BB27AA270E94581E0C94D2270E9486
:103C9000C42738F00E94CB2720F039F49F3F19F455
:103CA00026F40C94C1270EF4E095E7FB0C94BB2797
:103CB000E92F0E94E32758F3BA17620773078407B6
:103CC000950720F079F4A6F50C9405280EF4E095FC
:103CD0000B2EBA2FA02D0B01B90190010C01CA01C6
:103CE000A0011124FF27591B99F0593F50F4503E71
:103CF00068F11A16F040A22F232F342F4427585F63
:103D0000F3CF469537952795A795F0405395C9F77A
:103D10007EF41F16BA0B620B730B840BBAF0915032
:103D2000A1F0FF0FBB1F661F771F881FC2F70EC0D1
:103D3000BA0F621F731F841F48F4879577956795A4
:103D4000B795F7959E3F08F0B0CF9395880F08F090
:103D50009927EE0F9795879508950E94C42760F0E4
:103D600080E891E009F49EEF0E94CB2728F040E81C
:103D700051E071F45EEF0CC00C94C1270C9405283F
:103D8000E92FE0780E94E32740F3092E052AB1F3DA
:103D9000261737074807590738F00E2E07F8E02591
:103DA00069F0E025E0640AC0EF6307F8009407FAC1
:103DB000DB01B9019D01DC01CA01AD01EF930E9455
:103DC000361F0E94D2270E94F01E5F91552339F0C2
:103DD0002BED3FE049E450FD49EC0C94411E089561
:103DE000DF93DD27B92FBF7740E85FE3161617068C
:103DF00048075B0718F4D92F0E94F31F9F938F93F6
:103E00007F936F930E94FB1FE8E6F0E00E94C71FBC
:103E10000E94D2272F913F914F915F910E945E2780
:103E2000DD2351F09058A2EA2AED3FE049EC5FE330
:103E3000D0785D270E94581EDF910C94D2270E94F3
:103E4000331F0C94D2270E94CB2758F00E94C4271E
:103E500040F029F45F3F29F00C94BB2751110C94DA
:103E600006280C94C1270E94E32768F39923B1F335
:103E7000552391F3951B550BBB27AA276217730790
:103E8000840738F09F5F5F4F220F331F441FAA1F24
:103E9000A9F335D00E2E3AF0E0E832D091505040E0
:103EA000E695001CCAF72BD0FE2F29D0660F771F8E
:103EB000881FBB1F261737074807AB07B0E809F074
:103EC000BB0B802DBF01FF2793585F4F3AF09E3FF9
:103ED000510578F00C94BB270C9406285F3FE4F35F
:103EE000983ED4F3869577956795B795F7959F5F3C
:103EF000C9F7880F911D9695879597F90895E1E088
:103F0000660F771F881FBB1F621773078407BA07E6
:103F100020F0621B730B840BBA0BEE1F88F7E09541
:103F200008950E94981F6894B1110C940628089572
:103F30000E94EB2788F09F5798F0B92F9927B75127
:103F4000B0F0E1F0660F771F881F991F1AF0BA953D
:103F5000C9F714C0B13091F00E940528B1E008956E
:103F60000C940528672F782F8827B85F39F0B93F60
:103F7000CCF3869577956795B395D9F73EF49095F0
:103F80008095709561957F4F8F4F9F4F0895DF9378
:103F9000CF931F930F93FF92EF92DF927B018C01DF
:103FA000689406C0DA2EEF010E945E27FE01E894B5
:103FB000A5912591359145915591A6F3EF010E9468
:103FC000581EFE019701A801DA9469F7DF90EF907F
:103FD000FF900F911F91CF91DF9108950E942727A5
:103FE00008F48FEF08959B01AC0160E070E080E879
:103FF0009FE30C941F1F9B01AC010C944B270E9464
:104000002727880B990B089581E090E0F8940C9491
:104010005D28AEE0B0E0EFE0F0E20C9425280D89D9
:104020001E898F89988D26E02C831A83098397FF38
:1040300002C080E090E801979E838D83AE01455ECB
:104040005F4F698D7A8DCE0101960E9439204D8196
:104050005E8157FD0AC02F813885421753070CF443
:104060009A01F801E20FF31F10822E96E4E00C94FF
:104070004128ACE0B0E0EFE3F0E20C9417287C01BB
:104080006B018A01FC0117821682838181FFBDC109
:10409000CE0101964C01F7019381F60193FD8591C4
:1040A00093FF81916F01882309F4ABC1853239F404
:1040B00093FD859193FF81916F01853229F4B701BA
:1040C00090E00E942122E7CF512C312C20E02032B9
:1040D000A0F48B3269F030F4803259F0833269F405
:1040E00020612CC08D3239F0803339F4216026C034
:1040F0002260246023C0286021C027FD27C030ED46
:10410000380F3A3078F426FF06C0FAE05F9E300D93
:104110001124532E13C08AE0389E300D1124332E03
:1041200020620CC08E3221F426FD6BC1206406C0D3
:104130008C3611F4206802C0883641F4F60193FDF4
:10414000859193FF81916F018111C1CF982F9F7D40
:104150009554933028F40C5F1F4FFFE3F9830DC093
:10416000833631F0833771F0833509F05BC022C0AC
:10417000F801808189830E5F1F4F44244394512CA2
:10418000540115C03801F2E06F0E711CF801A080D7
:10419000B18026FF03C0652D70E002C06FEF7FEF96
:1041A000C5012C870E9416222C0183012C852F77B4
:1041B000222E17C03801F2E06F0E711CF801A080AA
:1041C000B18026FF03C0652D70E002C06FEF7FEF66
:1041D000C5012C870E940B222C012C852068222EE1
:1041E000830123FC1BC0832D90E048165906B0F4D0
:1041F000B70180E290E00E9421223A94F4CFF501C9
:1042000027FC859127FE81915F01B70190E00E9414
:10421000212231103A94F1E04F1A5108411451040F
:1042200071F7E5C0843611F0893639F5F80127FFBA
:1042300007C060817181828193810C5F1F4F08C02C
:1042400060817181072E000C880B990B0E5F1F4F48
:104250002F76722E97FF09C0909580957095619585
:104260007F4F8F4F9F4F2068722E2AE030E0A401CD
:104270000E945922A82EA81844C0853729F42F7E01
:10428000B22E2AE030E025C0F22FF97FBF2E8F3604
:10429000C1F018F4883579F0B4C0803719F0883748
:1042A00021F0AFC02F2F2061B22EB4FE0DC08B2D98
:1042B0008460B82E09C024FF0AC09F2F9660B92ED3
:1042C00006C028E030E005C020E130E002C020E177
:1042D00032E0F801B7FE07C060817181828193816D
:1042E0000C5F1F4F06C06081718180E090E00E5F1F
:1042F0001F4FA4010E945922A82EA818FB2DFF775A
:104300007F2E76FE0BC0372D3E7FA51450F474FE31
:104310000AC072FC08C0372D3E7E05C0BA2C372D6E
:1043200003C0BA2C01C0B52C34FF0DC0FE01EA0D4C
:10433000F11D8081803311F4397E09C032FF06C03F
:10434000B394B39404C0832F867809F0B39433FDFB
:1043500013C030FF06C05A2CB31418F4530C5B186A
:10436000B32CB31468F4B70180E290E03C870E945C
:104370002122B3943C85F5CFB31410F43B1801C04F
:10438000312C34FF12C0B70180E390E03C870E94DB
:1043900021223C8532FF17C031FD03C088E790E041
:1043A00002C088E590E0B7010CC0832F867859F0F1
:1043B00031FF02C08BE201C080E237FD8DE2B70120
:1043C00090E00E942122A51438F4B70180E390E028
:1043D0000E9421225A94F7CFAA94F401EA0DF11D0C
:1043E0008081B70190E00E942122A110F5CF3320F7
:1043F00009F451CEB70180E290E00E9421223A9464
:10440000F6CFF7018681978102C08FEF9FEF2C9640
:10441000E2E10C943328FC010590615070400110DA
:10442000D8F7809590958E0F9F1F0895FC016150DD
:10443000704001900110D8F7809590958E0F9F1FC6
:1044400008950F931F93CF93DF93FB01238121FDE9
:1044500003C08FEF9FEF28C022FF16C0468157810F
:10446000248135814217530744F4A081B1819D0115
:104470002F5F3F4F318320838C93268137812F5FBD
:104480003F4F3783268310C0EB01092F182F00847C
:10449000F185E02D0995892BE1F68E819F810196AA
:1044A0009F838E83812F902FDF91CF911F910F914A
:1044B0000895FA01AA27283051F1203181F1E894BA
:1044C0006F936E7F6E5F7F4F8F4F9F4FAF4FB1E007
:1044D0003ED0B4E03CD0670F781F891F9A1FA11D02
:1044E000680F791F8A1F911DA11D6A0F711D811D03
:1044F000911DA11D20D009F468943F912AE0269FC8
:1045000011243019305D3193DEF6CF010895462F26
:104510004770405D4193B3E00FD0C9F7F6CF462F07
:104520004F70405D4A3318F0495D31FD4052419370
:1045300002D0A9F7EACFB4E0A6959795879577952D
:104540006795BA95C9F700976105710508959B01B4
:10455000AC010A2E06945795479537952795BA953D
:10456000C9F7620F731F841F951FA01D0895EF9256
:104570000F931F93CF93DF93E80147FD02C034E010
:1045800001C034E1E42F440FFF0BF7FF03C0F195A6
:10459000E195F109E32E022F2E2FAE010E94012397
:1045A000CE01DF91CF911F910F91EF900895662773
:1045B00077270C948F24FC0188279927E894219170
:1045C0002032E9F3293010F02E30C8F32B3241F0BD
:1045D0002D3239F4689404C00E94F922820F911D93
:1045E000219120532A30C0F31EF4909581959F4F5E
:1045F00008957AE0979F902D879F802D910D11242B
:1046000008954F925F926F927F929F92AF92BF9266
:10461000CF92DF92EF92FF920F931F93CF93DF938E
:10462000CDB7DEB729970FB6F894DEBF0FBECDBF6A
:104630006A01122FB02E2BE3201720F0FF24F394F1
:10464000F00E02C0BCE3FB2E0F2D27E0AE014F5F42
:104650005F4F0E94EC25AC018981982F99709130B1
:1046600031F0E1FC06C0E0FE06C090E205C09DE22C
:1046700003C09BE201C090E0EE2DE07183FF3CC0DF
:10468000911102C083E001C084E0811718F4212F4A
:10469000281B01C020E0E1110BC0F601822F30E29F
:1046A000882319F031938150FBCFC20ED11C20E03A
:1046B000992329F0D6019C93F60131966F01C6012A
:1046C0000396E2FE0AC03EE4D6013C9341E4119613
:1046D0004C93119712963C9306C03EE6F601308348
:1046E00041E641833283FC01322F40E2332309F457
:1046F00042C041933150FACF82FF44C0911102C0B1
:1047000083E001C084E0811718F4212F281B01C029
:1047100020E0E1110BC0F601822F30E2882319F06E
:1047200031938150FBCFC20ED11C20E0992329F098
:10473000D6019C93F60131966F01C6010396E2FE05
:104740000BC039E4D6013C933EE411963C9311979B
:1047500036E412963C9307C039E6F60130833EE614
:10476000318336E63283FC01322F40E2332319F0E5
:1047700041933150FBCFFC01E20FF11D10828EEF0F
:104780009FEFB7C0F1E0911101C0F0E06F2F70E032
:104790001416150624F49A012F5F3F4F02C021E042
:1047A00030E0260F371FBB2029F06B2D70E06F5FC4
:1047B0007F4F02C060E070E0260F371F612F70E06E
:1047C000261737071CF4121B212F01C020E03E2DB5
:1047D000387159F4D601322F60E2332319F06D930A
:1047E0003150FBCFC20ED11C20E0FF2331F0D601A7
:1047F0009C93B6016F5F7F4F6B01E1110BC0F60117
:10480000922F30E3992319F031939150FBCFC20ED0
:10481000D11C20E09F2D940F3A81782F7071A72E24
:1048200084FF03C0313309F49150191624F49930F0
:1048300018F098E001C091E0E42F852F57FF02C0E7
:10484000E0E080E06E2F782FE0E0F0E0AEE29A2E1C
:104850003A01691A71082A01461A570A0B2D10E00D
:104860001195019511096F3F8FEF780729F4D60153
:104870009C92C60101966C014617570784F0661694
:1048800077066CF47F01E40CF51CA1E0B0E0AC0FFE
:10489000BD1FEA0EFB1ED7011196BC9002C090E32B
:1048A000B92E615071093196C60101967C016017DD
:1048B000710724F0D601BC926C01D5CF641775073F
:1048C00041F4363320F4353321F4A11002C081E3E2
:1048D000B82EF601B082F701822F90E2882319F0FA
:1048E00091938150FBCFF701E20FF11D108280E020
:1048F00090E029960FB6F894DEBF0FBECDBFDF91D2
:10490000CF911F910F91FF90EF90DF90CF90BF90CC
:10491000AF909F907F906F905F904F900895A0E030
:10492000B0E0E5E9F4E20C941B28EC017B01611591
:10493000710519F0DB018D939C938E010F5F1F4F62
:104940007880872D90E00E94C426892B11F0E80121
:10495000F4CFBDE27B1205C00F5F1F4F7980C1E02D
:1049600008C0EBE27E1204C08E010E5F1F4F7980FB
:10497000C0E06801F1E0CF1AD10843E050E060ECFC
:1049800073E0C6010E94CD26892BF1F4680122E074
:10499000C20ED11C45E050E06BEB73E0C6010E94F3
:1049A000CD26892B21F4680187E0C80ED11CE114C3
:1049B000F10419F0D701CD92DC92C111FFC060E083
:1049C00070E080E89FE703C143E050E068EB73E0EC
:1049D000C6010E94CD26892B51F4E114F10409F49B
:1049E000F2C00E5F1F4FF70111830083ECC0680116
:1049F00060E070E0CB0100E010E0F601D0EDD70DF3
:104A0000DA3058F52C2F2260622E2C2F2870C2FF2E
:104A100005C0211128C00F5F1F4F25C0222311F0B0
:104A200001501109A5E0B0E09B01AC010E940C28E7
:104A30004B015C01880C991CAA1CBB1CC501B4016C
:104A40006D0F711D811D911D6839A9E97A078A07CB
:104A5000A9E19A0740F0C66005C0DE3F51F4C3FDEE
:104A600044C0C8606C2EBFEFCB1ADB0A7080C62D25
:104A7000C4CF2D2F2F7D2531C1F540814D3211F44A
:104A8000C06106C04B3221F0319621E030E006C013
:104A90003296D60111964C9122E030E0A0EDA40FA1
:104AA000AA3018F0E21BF30B20C040E050E0403881
:104AB000BCE05B075CF49A01220F331F220F331F07
:104AC000420F531F440F551F4A0F511D3196DF01EE
:104AD00011972C91A0EDA20FAA3048F3C4FF03C098
:104AE000519541955109040F151FC1FF07C0E114ED
:104AF000F10421F03197D701ED93FC930E94EA264F
:104B0000C370C33019F06B017C0106C06B017C01DE
:104B1000F7FAF094F7F8F09420E030E0A901C7012B
:104B2000B6010E94E526882309F445C017FF06C098
:104B3000119501951109C7EDD3E002C0CFEED3E086
:104B40005E01B8E1AB1AB1084601BE2DAF2D90E26F
:104B5000E92EF12C0E151F0584F0FE0125913591EB
:104B600045915491B4018B2F9A2F0E944B274B01F2
:104B7000B82FA92F0E191F09EDCF2497F594E794AC
:104B8000CA15DB0539F76401EB2EFA2E8E2D880F3E
:104B90008F2D881F8F3F49F020E030E0A901C70129
:104BA000B6010E94E526811106C082E290E0909352
:104BB000E3048093E204C701B60109C060E070E03D
:104BC00080E89FEF04C060E070E080EC9FE7CDB725
:104BD000DEB7EEE00C943728283008F027E03327C2
:104BE000DA01990F311D87FD91600096610571050D
:104BF00039F432602E5F3D9330E32A95E1F7089552
:104C00009F3F30F080387105610509F03C5F3C5FE3
:104C10003D93913008F08068911DDF93CF931F93EF
:104C20000F93FF92EF92192F987F9695E92F969503
:104C30009695E90FFF27E35BFB4F99273327EE2477
:104C4000FF24A701E70105900894079428F4360F84
:104C5000E71EF81E491F511D660F771F881F991FF9
:104C60000694A1F70590079428F4E70EF81E491F53
:104C7000561FC11D770F881F991F661F0694A1F745
:104C80000590079428F4F80E491F561FC71FD11D21
:104C9000880F991F661F771F0694A1F70590079448
:104CA00020F4490F561FC71FD81F990F661F771F83
:104CB000881F0694A9F784911095177041F0D69536
:104CC000C79557954795F794E7941A95C1F7E3EF81
:104CD000F3E0689415901591359165919591059043
:104CE0007FE27395E118F10A430B560BC90BD0090B
:104CF000C0F7E10CF11E431F561FC91FD01D7EF4E3
:104D0000703311F48A95E6CFE894015030F0080F23
:104D10000AF40027021708F4202F2395022F7A3374
:104D200028F079E37D932A95E9F710C07D932A95C1
:104D300089F6069497956795379517951794E11816
:104D4000F10A430B560BC90BD00998F023957E91BD
:104D500073957A3308F070E37C932013B8F77E9153
:104D600070617D9330F0839571E37D9370E32A95B4
:104D7000E1F71124EF90FF900F911F91CF91DF91F8
:104D8000992787FD9095089591110C94B82780324A
:104D900019F089508550C8F70895FB01DC01415096
:104DA000504088F08D9181341CF08B350CF4805E7E
:104DB000659161341CF06B350CF4605E861B6111EB
:104DC00071F3990B0895881BFCCF0E94272708F4E4
:104DD00081E00895E89409C097FB3EF49095809592
:104DE000709561957F4F8F4F9F4F9923A9F0F92FB1
:104DF00096E9BB279395F695879577956795B7952F
:104E0000F111F8CFFAF4BB0F11F460FF1BC06F5F14
:104E10007F4F8F4F9F4F16C0882311F096E911C026
:104E2000772321F09EE8872F762F05C0662371F047
:104E300096E8862F70E060E02AF09A95660F771F5B
:104E4000881FDAF7880F9695879597F90895990F37
:104E50000008550FAA0BE0E8FEEF16161706E80744
:104E6000F907C0F012161306E407F50798F0621B65
:104E7000730B840B950B39F40A2661F0232B242B3A
:104E8000252B21F408950A2609F4A140A6958FEF59
:104E9000811D811D08950E945E270C94D2270E94D7
:104EA000C42738F00E94CB2720F0952311F00C94F2
:104EB000BB270C94C12711240C9406280E94E327D9
:104EC00070F3959FC1F3950F50E0551F629FF0015D
:104ED000729FBB27F00DB11D639FAA27F00DB11D76
:104EE000AA1F649F6627B00DA11D661F829F2227FF
:104EF000B00DA11D621F739FB00DA11D621F839F86
:104F0000A00D611D221F749F3327A00D611D231F5B
:104F1000849F600D211D822F762F6A2F11249F57A9
:104F200050409AF0F1F088234AF0EE0FFF1FBB1FAC
:104F3000661F771F881F91505040A9F79E3F51056B
:104F400080F00C94BB270C9406285F3FE4F3983E56
:104F5000D4F3869577956795B795F795E7959F5F15
:104F6000C1F7FE2B880F911D9695879597F90895A7
:104F700099278827089597F99F6780E870E060E097
:104F800008959FEF80EC089500240A9416161706E2
:104F900018060906089500240A941216130614062A
:104FA00005060895092E0394000C11F4882352F08D
:104FB000BB0F40F4BF2B11F460FF04C06F5F7F4F45
:104FC0008F4F9F4F089557FD9058440F551F59F02C
:104FD0005F3F71F04795880F97FB991F61F09F3FE6
:104FE00079F087950895121613061406551FF2CF0F
:104FF0004695F1DF08C0161617061806991FF1CF5F
:1050000086957105610508940895E894BB27662785
:105010007727CB0197F908950E944E28A59F900D00
:10502000B49F900DA49F800D911D112408952F927F
:105030003F924F925F926F927F928F929F92AF9228
:10504000BF92CF92DF92EF92FF920F931F93CF9375
:10505000DF93CDB7DEB7CA1BDB0B0FB6F894DEBF0C
:105060000FBECDBF09942A88398848885F846E8432
:105070007D848C849B84AA84B984C884DF80EE807C
:10508000FD800C811B81AA81B981CE0FD11D0FB685
:10509000F894DEBF0FBECDBFED010895A29FB00111
:1050A000B39FC001A39F700D811D1124911DB29F5C
:1050B000700D811D1124911D089512E0C8E7D2E002
:1050C00004C0FE010E943A1E2196C937D107C9F7D4
:0450D000F894FFCF82
:1050D400BF03BF03000000002703A302F002CE02B7
:1050E400E2026E03000000004E041E0416040204D3
:1050F400F303F203000000009604A302EA0402058D
:105104007D049504095254433A2025642E253032F7
:10511400642E2530326420253032643A25303264DE
:105124003A25303264003A43003A50003A447C2530
:10513400647C253032647C253032647C25303264D2
:105144007C253032647C25303264007C2573007CFD
:1051540025647C25647C25647C2564005478204681
:1051640072616D6520000D0A006E616E00696E66E5
:08517400006F7666002E0000BA
:00000001FF
