:100000000C94BB020C94BB060C9494060C94F6085A
:100010000C94F6080C94F6080C9493080C94E302E4
:100020000C94E3020C94E3020C94E3020C94E302BC
:100030000C94E3020C94E3020C94E3020C94E302AC
:100040000C94FA0F0C94E3020C9433070C940D07F4
:100050000C94E3020C94E3020C94E3020C94E3028C
:100060000C9465070C94E302084AD73B3BCE016E23
:1000700084BCBFFDC12F3D6C74319ABD56833DDAFF
:100080003D00C77F11BED9E4BB4C3E916BAAAABE0E
:10009000000000803F004E414E494E495459494EA0
:1000A00046CDCCCC3D0AD7233C17B7D13877CC2BE3
:1000B000329595E6241FB14F0A000020410000C888
:1000C0004200401C4620BCBE4CCA1B0E5AAEC59D09
:1000D0007400407A10F35A00A0724E18090010A55F
:1000E000D4E80000E87648170000E40B5402000052
:1000F000CA9A3B000000E1F50500008096980000D8
:100100000040420F000000A0860100000010270000
:10011000000000E803000000006400000000000A86
:1001200000000000000100000000002C76D888DCF0
:10013000674F0823DFC1DFAE59E1B1B796E5E3E4CD
:1001400053C63AE651997696E8E6C28426EB898C46
:100150009B62ED407C6FFCEFBC9C9F40F2BAA56FA8
:10016000A5F490055A2AF75C936B6CF9676DC11B77
:10017000FCE0E40D47FEF520E6B500D0ED902E033F
:1001800000943577050080841E080000204E0A0088
:100190000000C80C333333330F986E12831141EFD4
:1001A0008D2114893BE65516CFFEE6DB18D1844B32
:1001B000381BF77C1D901DA4BBE424203284725EA2
:1001C000228100C9F124ECA1E53D2754696D652029
:1001D0006E6F7420736574757021005254432054FF
:1001E000696D65204572726F720032303A32333A6F
:1001F0003530002C20004465632020392032303116
:100200003800436F6D70696C65643A20000A2A2AD1
:100210002A2A2A2A2A20495F524F554554544520FC
:10022000424F4F54202A2A2A2A2A2A2A0A000948F9
:10023000756D69646974793A2000094C756D696E51
:100240006F736974793A200009507265737375721F
:10025000653A20000954656D70206578743A200075
:100260000954656D7020696E743A20000957696EF3
:10027000642053706565643A20000957696E2064F4
:1002800069723A200009564241543A2000094368F5
:10029000617267652053746174653A20002D2D2DBD
:1002A0002D2D2D2D2D2053656E736F7273202D2DE6
:1002B0002D2D2D2D2D2D0047657420506172616DFF
:1002C000204F4B00202D205254432054696D65204F
:1002D000557064617465202100457272205061720E
:1002E000616D206E756D6265720052782046726194
:1002F0006D652000202D20526164696F20527820A6
:10030000506172616D204F4B00202D205261646955
:100310006F20527820506172616D204661696C00D7
:10032000202D20526164696F205478204F4B0020AB
:100330002D20526164696F205478204661696C00F9
:10034000202D20526164696F20436F6E6E65637467
:10035000656400202D20526164696F204E6F742007
:10036000436F6E6E656374656400202D2052616476
:10037000696F2053796E6300202D20526164696F8C
:100380002053796E63204572726F7200202D2053C6
:100390006C656570696E67204C69676874204F6E84
:1003A000206D6F646500202D20536C656570696E4B
:1003B0006720446179206F72204C69676874206FF0
:1003C0006666206D6F646500202D204D6F6465208A
:1003D00044415900202D204D6F6465204E49474807
:1003E000545F4C494748545F4F464600202D204DEE
:1003F0006F6465204E494748545F4C494748545FF5
:100400004F4E00202D205365747570206E657874F2
:100410002077616B6575702074696D6500202D20F3
:10042000536B697070696E672053656E736F7220CD
:1004300075706461746520616E6420526164696FD7
:10044000205461736B00202D20526164696F205429
:1004500061736B00202D2053656E736F727320558E
:10046000706461746500202D205254432057616BE5
:100470006575702021000972706D5F746F5F6D7318
:100480003A2000097663635F726164696F5F6D692A
:100490006E3A2000097663635F6C696768745F6D0C
:1004A000696E3A20000972706D5F6D6561737572D7
:1004B000655F74696D653A20000973756E726973C2
:1004C000655F74696D653A20000973756E736574B4
:1004D0005F74696D653A200009736C6565705F70C3
:1004E0006572696F643A2000096E696768745F6DB0
:1004F0006F64655F6C756D3A20002D2D2D2D2D2DAF
:100500002D2D20506172616D6574657273202D2DE3
:100510002D2D2D2D2D2D0000000000240027002A58
:1005200000000000080002010000030407000000B2
:100530000000000000000000002300260029000049
:10054000000000250028002B000404040404040417
:100550000402020202020203030303030301020472
:100560000810204080010204081020010204081035
:100570002000EA1ECE1E11241FBECFEFD8E0DEBF42
:10058000CDBF25E0AEEEB1E001C01D92A034B207B0
:10059000E1F711E0A0E0B1E0ECEBF6E502C0059078
:1005A0000D92AE3EB107D9F712E0CAEBD2E004C01B
:1005B0002197FE010E945527C93BD107C9F70E9428
:1005C000C7110C94512B0C94CC0A0895CF92DF9252
:1005D000EF92FF920F931F93CF93DF936C017A01F9
:1005E0008B01C0E0D0E0CE15DF0581F0D8016D9120
:1005F0008D01D601ED91FC910190F081E02DC601B5
:100600000995892B11F02196EECF7E01C701DF916C
:10061000CF911F910F91FF90EF90DF90CF900895B1
:10062000FC01538D448D252F30E0842F90E0821BF8
:10063000930B541710F0CF96089501970895FC017D
:10064000918D828D981761F0828DDF01A80FB11D09
:100650005D968C91928D9F5F9F73928F90E008952D
:100660008FEF9FEF0895FC01918D828D981731F0E7
:10067000828DE80FF11D858D90E008958FEF9FEF3B
:100680000895FC01918D228D892F90E0805C9F4F11
:10069000821B91098F739927089588EF93E00E9438
:1006A000410321E0892B09F420E0822F0895FC0109
:1006B000848DDF01A80FB11DA35ABF4F2C91848DEB
:1006C00090E001968F739927848FA689B7892C9320
:1006D000A089B1898C91837080648C93938D848D73
:1006E000981306C00288F389E02D80818F7D808376
:1006F0000895EF92FF920F931F93CF93DF93EC0136
:1007000081E0888F9B8D8C8D981305C0E889F989CD
:10071000808185FD26C0F62E0B8D10E00F5F1F4FE8
:100720000F731127E02E8C8DE8120CC00FB607FC5A
:10073000FACFE889F989808185FFF5CFCE010E9443
:100740005703F1CF8B8DFE01E80FF11DE35AFF4FE8
:10075000F0829FB7F8940B8FEA89FB8980818062D1
:100760000AC09FB7F894EE89FF896083E889F98908
:1007700080818370806480839FBF81E090E0DF91FF
:10078000CF911F910F91FF90EF900895CF93DF933A
:10079000EC01888D8823C9F0EA89FB89808185FD79
:1007A00005C0A889B9898C9186FD0FC00FB607FCDA
:1007B000F5CF808185FFF2CFA889B9898C9185FF1B
:1007C000EDCFCE010E945703E7CFDF91CF9108957F
:1007D00080E090E0892B29F00E944D0381110C9458
:1007E000000008958091AC0390E02091AD03821B3E
:1007F0009109089585ED8093BC008091BC0084FD33
:10080000FCCF1092F703089540919402262F30E018
:10081000240F311D21323105DCF42091F7032430FF
:10082000C9F4FC0180E090E0861758F430919402FE
:100830002191DC01AC58BD4FA30FB11D2C93019643
:10084000F3CF80919402680F6093940280E0089542
:1008500081E0089582E00895089508950895E09153
:10086000AD038091AC03E81730F4F0E0EF54FC4F97
:10087000808190E008958FEF9FEF08959091AD03F0
:100880008091AC03981750F4E92FF0E0EF54FC4F3F
:10089000208130E09F5F9093AD0302C02FEF3FEFC8
:1008A000C9010895CF92DF92EF92FF920F931F93A9
:1008B000CF93DF937C01CB018A012091B0032223E7
:1008C00089F0EB016B01C40ED51ECC15DD0569F076
:1008D0006991D701ED91FC910190F081E02DC70164
:1008E0000995F3CF642F0E940404C801DF91CF91D2
:1008F0001F910F91FF90EF90DF90CF900895CF93CD
:10090000DF931F92CDB7DEB769832091B003222316
:10091000D1F02091AE03203240F021E030E0FC0124
:100920003383228380E090E015C08091AF03E82FED
:10093000F0E0E457FC4F998190838F5F8093AF0381
:100940008093AE0305C061E0CE0101960E940404CD
:1009500081E090E00F90DF91CF9108952091FF0406
:10096000309100052817390771F49091EE018091BC
:10097000EF01981741F0E091EE01F0E0EC5CFD4FE3
:10098000808190E008958FEF9FEF08951F93CF939C
:10099000DF93DC015C968D919C915D97009739F413
:1009A00021E030E013963C932E9312973BC0519672
:1009B000ED91FC91529750962C915097322F309593
:1009C0001FB75E964C915E97742F727041FD6095D3
:1009D000F8944081772311F0422B01C043234083D8
:1009E000EC012197F1F748E0508160FF02C0522BE3
:1009F00001C053235083EC012197F1F766954150D4
:100A000099F78081772319F08323808302C0282BF4
:100A100020831FBF5C968D919C915D970197F1F7A4
:100A200081E090E0DF91CF911F9108952091FF0424
:100A3000309100052817390771F48091EF0120915A
:100A4000EE0190E0805C9F4F821B910960E470E0B2
:100A50000E940B27089580E090E008952091FF0404
:100A60003091000528173907B9F49091EE01809173
:100A7000EF01981789F0E091EE01F0E0EC5CFD4F9A
:100A800080812091EE0130E02F5F3F4F2F7333279D
:100A90002093EE0190E008958FEF9FEF0895089561
:100AA00080E090E0089508950E947C280F931F93A2
:100AB000CF93DF938C01EB0188E2FB0111928A95C1
:100AC000E9F74BE050E067ED71E0CE010E9481282C
:100AD0001B8681E090E0A0E0B0E08C879D87AE8728
:100AE000BF87F80185899689A789B08D888B998BF6
:100AF000AA8BBB8B82E090E0A0E0B0E08C8B9D8B5A
:100B0000AE8BBF8B1CA21DA21EA21FA280E090E094
:100B1000A8E4B4E4888F998FAA8FBB8F80E090E01F
:100B2000A8E4B4EC8C8F9D8FAE8FBF8F8DEC9CECC6
:100B3000ACE4BEE388A399A3AAA3BBA3DF91CF91A2
:100B40001F910F9108954F925F926F927F928F92B3
:100B50009F92AF92BF92CF92DF92EF92FF920F934C
:100B60001F93CF93DF938C01EB0184E2FB01119281
:100B70008A95E9F78EE10E94AF1083E090E00E9431
:100B80001F110E94C31066E08EE10E946D1010924A
:100B9000AD038093AC0390E086309105ECF385E9DA
:100BA00094E00E943E04882E85E994E00E943E0471
:100BB000982E85E994E00E943E04682E85E994E031
:100BC0000E943E04782E85E994E00E943E04482E5F
:100BD00085E994E00E943E04582EB82CA12CB50162
:100BE0006929072E000C880B990B0E94CA234B0120
:100BF0005C01F8016583768387839087D42CC12CB0
:100C0000B6016529072E000C880B990B0E94CA2398
:100C1000F8016187728783879487F62CE12CB701EE
:100C20006729072E000C880B990B0E94CA23F80134
:100C3000658776878787908B118A128A138A148A30
:100C400084E290E0A0E0B0E088839983AA83BB832C
:100C500085899689A789B08D8C839D83AE83BF8358
:100C600082E090E0A0E0B0E088879987AA87BB8700
:100C7000188A198A1A8A1B8AC0900401D09005012B
:100C8000E0900601F0900701A7019601C501B401AB
:100C90000E941A2620E030E048EC52E40E94292409
:100CA0006C8B7D8B8E8B9F8BA7019601F8016185E4
:100CB0007285838594850E941A2620E030E048ECF6
:100CC00052E40E942924688F798F8A8F9B8F20910C
:100CD0000001309101014091020150910301F8019E
:100CE00065857685878590890E941A2620E030E008
:100CF00048EC52E40E9429246C8F7D8F8E8F9F8F49
:100D000081E0DF91CF911F910F91FF90EF90DF90E5
:100D1000CF90BF90AF909F908F907F906F905F909B
:100D20004F9008950C94F3271F920F920FB60F92D5
:100D300011242F933F934F935F936F937F938F93E0
:100D40009F93AF93BF93EF93FF93E0910A01F091CC
:100D50000B010995FF91EF91BF91AF919F918F91F9
:100D60007F916F915F914F913F912F910F900FBEA7
:100D70000F901F9018951F920F920FB60F9211248B
:100D80002F933F934F935F936F937F938F939F9393
:100D9000AF93BF93EF93FF93E0910801F0910901A6
:100DA0000995FF91EF91BF91AF919F918F917F91A5
:100DB0006F915F914F913F912F910F900FBE0F90C8
:100DC0001F9018956115710579F0FB0101900020C5
:100DD000E9F73197AF01461B570BDC01ED91FC9110
:100DE0000280F381E02D099480E090E008956FED9A
:100DF00071E00C94E2060F931F93CF93DF93EC0105
:100E00000E94E2068C01CE010E94F706800F911F1E
:100E1000DF91CF911F910F9108951F920F920FB6FE
:100E20000F9211242F933F934F935F936F937F9370
:100E30008F939F93AF93BF93EF93FF9388EF93E0CC
:100E40000E945703FF91EF91BF91AF919F918F91B6
:100E50007F916F915F914F913F912F910F900FBEB6
:100E60000F901F9018951F920F920FB60F9211249A
:100E70002F938F939F93EF93FF93E0910804F0914A
:100E800009048081E0910E04F0910F0482FD12C0EC
:100E90009081809111048F5F8F73209112048217CB
:100EA00051F0E0911104F0E0E850FC4F958F8093F1
:100EB000110401C08081FF91EF919F918F912F913B
:100EC0000F900FBE0F901F9018951F920F920FB6A4
:100ED0000F9211242F933F934F935F936F937F93C0
:100EE0008F939F93AF93BF93EF93FF938091B9003C
:100EF000887F803609F49CC068F5883209F45BC0AD
:100F000090F4803109F454C038F4882309F4F6C011
:100F1000883009F44DC0F6C0883109F44CC08032E5
:100F200009F45DC0EFC0803409F468C048F4803330
:100F300009F455C0883309F0E5C08093F503D8C0A3
:100F4000803509F44FC0883509F45DC0883409F054
:100F5000D9C0D6C0883909F4C7C0A8F4883709F4C5
:100F600067C038F4883609F463C0803709F460C07C
:100F7000C9C0883809F4B8C0803909F45FC0803826
:100F800009F0C0C05BC0803B09F486C038F4803AE9
:100F900009F466C0883A09F47FC0B4C0803C09F403
:100FA000A7C0883C09F4A4C0883B09F48AC0AAC041
:100FB0008091F20310C09091F4038091F30398178D
:100FC00070F5E091F40381E08E0F8093F403F0E07C
:100FD000EF52FC4F80818093BB0085EC86C08093EC
:100FE000F5038EC0E091F40381E08E0F8093F4034B
:100FF0008091BB00F0E0EF52FC4F80839091F403AE
:101000008091F3036EC0E091F40381E08E0F809332
:10101000F4038091BB00F0E0EF52FC4F808380919D
:10102000F60381116DC081E08093F10384EA61C011
:1010300083E08093F7031092B602CFCF8091B6027F
:10104000803208F051C0E091B60281E08E0F8093AB
:10105000B6028091BB00F0E0EA56FD4F8083BDCF21
:1010600085EC8093BC001092F7038091B602803229
:1010700030F4E091B602F0E0EA56FD4F1082609144
:10108000B60270E0E091B702F091B80286E992E012
:1010900009951092B60236C084E08093F70310924F
:1010A000950210929402E091B902F091BA0209956A
:1010B00080919402811105C081E080939402109286
:1010C0007402E091950281E08E0F80939502F0E02A
:1010D000EC58FD4F80818093BB00909195028091E8
:1010E0009402981708F479CF85E88093BC000AC071
:1010F00085EC8093BC001092F70304C01092F503B6
:101100000E94FA03FF91EF91BF91AF919F918F9150
:101110007F916F915F914F913F912F910F900FBEF3
:101120000F901F9018951F920F920FB60F921124D7
:101130008F930FB6F894A895809160008861809392
:101140006000109260000FBE8F910F900FBE0F9045
:101150001F9018954115510529F4EAE7F0E08081C8
:101160008F7780836A307105A9F063FD02C088E043
:1011700001C088E26770682B88E10FB6F894A895E3
:10118000809360000FBE60936000E0E6F0E0808135
:1011900080648083232BA1F483B7817F846083BF25
:1011A000F89483B7816083BF85B7806685BF8F7DE4
:1011B00085BF7894889583B78E7F83BF78940EC05F
:1011C00083B7817F846083BFF89483B7816083BFD6
:1011D0007894889583B78E7F83BF7894452B29F4C4
:1011E000EAE7F0E080818068808308951F920F9283
:1011F0000FB60F9211242F933F934F935F936F93EA
:101200007F938F939F93AF93BF93EF93FF93E0915F
:10121000FF04F0910005309709F451C0968DA68522
:10122000B785858591FF04C09C91892329F447C027
:101230009C91892309F043C0A389B4899C91858935
:10124000809589238C93868997890197F1F7608D22
:10125000718DA685B785558538E020E0CB010197D3
:10126000F1F7822F90E095958795282F4C91452393
:1012700009F02068315091F7868D81FD209580918D
:10128000EF0190E001968F7399273091EE013817A6
:1012900049F0A091EF01B0E0AC5CBD4F2C9380937E
:1012A000EF0103C0868D8160868F828D938D0197BB
:1012B000F1F7A389B4899C918589892B8C93FF913F
:1012C000EF91BF91AF919F918F917F916F915F91BE
:1012D0004F913F912F910F900FBE0F901F90189537
:1012E000CF93DF93D82FC62F88E60E94AF106D2FC3
:1012F00085E994E00E947F046C2F85E994E00E94C8
:101300007F04DF91CF910C94C310CF92DF92EF92C4
:10131000FF920F931F93CF93DF93CDB7DEB727973D
:101320000FB6F894DEBF0FBECDBF8C0188E60E94D9
:10133000AF1080E090E00E941F110E94C31067E090
:1013400070E088E690E00E94B910CE0101967C0121
:10135000D12CC12C85E994E00E943E04982F9F7007
:10136000E5E0DE120FC084FB222720F9220F322F86
:10137000330F330F230F920F9E83C82ECC1CCC2427
:10138000CC1C08C082958F70FAE08F9F900D1124BD
:10139000F7019083D394FFEFEF1AFF0A27E0D212F0
:1013A000D9CF2F8181E0C81205C0822F90E08053F1
:1013B000984F04C0822F90E08459984F3981F801EA
:1013C00030833A8131833B8132833D8133833E8157
:1013D0003483968385838C818783228727960FB6F3
:1013E000F894DEBF0FBECDBFDF91CF911F910F915B
:1013F000FF90EF90DF90CF900895DF92EF92FF92F1
:101400000F931F93CF93DF93CDB7DEB762970FB6DD
:10141000F894DEBF0FBECDBFFC01258136818481EB
:1014200093815281618170814885213DA7E03A070F
:1014300024F0205D30E8E32E02C02C56E12C7C879E
:101440006D875E874F87988B898B2A8B88E60E94F1
:10145000AF1080E090E00E941F118E01045F1F4FCB
:10146000F12C8AE0D82EF80180816D2D0E94FF2694
:10147000B0E18B9F900D1124908325E0F21203C000
:1014800089898E0D898B0F5F1F4F608185E994E0FC
:101490000E947F04F39487E0F812E5CF62960FB6BE
:1014A000F894DEBF0FBECDBFDF91CF911F910F919A
:1014B000FF90EF90DF900C94C3100895CF93DF93CB
:1014C00081E095E00E94F7068AEF94E00E945F10A9
:1014D00088EE94E00E944410C0EFD1E08A819B81A5
:1014E0000E944D0D88ED94E00E9444106C8170E0E4
:1014F00080E090E04AE00E94841181E095E00E9443
:10150000F70689EC94E00E9444108D819E810E9430
:101510004D0D89EB94E00E9444108F8198850E94C4
:101520004D0D85EA94E00E944410698570E080E0EA
:1015300090E04AE00E94841181E095E00E94F70665
:1015400084E994E00E9444106A857B858C859D85A2
:101550000E94800C83E894E00E9444106E857F8591
:10156000888999890E94800C86E794E00E94441043
:101570006A897B898C899D89DF91CF910C94800C3D
:1015800061E080E10C94EB0D61E081E10C94EB0DE6
:1015900061E08AE00C94EB0D1F920F920FB60F9250
:1015A00011240E94C80A88E198E00FB6F894A89523
:1015B000809360000FBE90936000F7CF61E084E0FD
:1015C0000E94EB0D61E081E00E946A0E61E081E023
:1015D0000E94EB0D68EB7BE080E090E00E94BD0E86
:1015E000E8EFF3E0A089B18982E08C93A485B5850A
:1015F0001C92A685B78587E68C93108EA489B58941
:1016000086E08C93A289B3898C9180618C93A289A6
:10161000B3898C9188608C93A289B3898C918068FE
:101620008C930288F389E02D80818F7D80830895DB
:1016300081110C94DE0A88EF93E00E94C603E091CA
:101640000A04F0910B0480818F7E8083E0910A046C
:10165000F0910B048081877F8083E0910A04F091F0
:101660000B0480818F778083E0910A04F0910B0452
:1016700080818F7D8083809112048093110461E0CA
:1016800081E00E946A0E60E081E00E94EB0D60E064
:1016900084E00C94EB0D80E00E94180B68EE73E080
:1016A00080E090E00E94BD0E0E94DE0A88EF93E089
:1016B0000E944103181619062CF488EF93E00E944B
:1016C0001F03F4CF08950E94C80A61E08BE00E94D6
:1016D000EB0D0E94C40A0E94C00A61E08DE00E94E6
:1016E000EB0D61E088E00E94EB0D61E087E00E9475
:1016F000EB0D61E083E00E94EB0D61E08EE00C9465
:10170000EB0D60E08AE00E94EB0D60E08BE00E9450
:10171000EB0D60E081E10E94EB0D60E080E10E9452
:10172000EB0D60E08DE00E94EB0D60E088E00E9430
:10173000EB0D60E087E00E94EB0D60E083E00E942B
:10174000EB0D60E08EE00C94EB0DCF93DF93D82F80
:101750000E94810B64EF71E080E090E00E94BD0E7A
:10176000C0E0CD17A1F00E94C80A64EF71E080E0EC
:1017700090E00E94BD0E60E08AE00E94EB0D64EFF5
:1017800071E080E090E00E94BD0ECF5FEACFDF9174
:10179000CF9108951F93CF93DF93D82F162FC0E0DA
:1017A000CD17E9F061E089E00E94EB0D112329F0EB
:1017B00064E670E080E090E004C064E170E080E006
:1017C00090E00E94BD0E60E089E00E94EB0D64E6AF
:1017D00070E080E090E00E94BD0ECF5FE1CFDF912E
:1017E000CF911F9108958FB7F894E1E6F0E090E86B
:1017F000908310828FBF089561E081E00E94CA0B40
:10180000E89885EE92E090930901809308010E9488
:10181000F30B81E08093060208958F929F92AF921E
:10182000BF92CF92DF92EF92FF92CF93DF93A0917E
:10183000F304882311F03A2F01C030E08091F404C2
:1018400090E0880F991F8B5C9A4FC090F904D0905C
:10185000FA04E090FB04F090FC0440E050E0BA0190
:10186000FC01C591D49128812A23231314C04A0175
:101870005B012FEF821A920AA20AB20A4C155D058B
:101880006E057F0518F4B501A401EACF30E020E031
:1018900080E090E003C0342F252FCB01632F722FFF
:1018A000DF91CF91FF90EF90DF90CF90BF90AF90FE
:1018B0009F908F9008953FB7F8948091C0029091C7
:1018C000C102A091C202B091C30226B5A89B05C077
:1018D0002F3F19F00196A11DB11D3FBFBA2FA92FAF
:1018E000982F8827820F911DA11DB11DBC01CD012C
:1018F00043E0660F771F881F991F4A95D1F7089517
:101900004F925F926F927F928F929F92AF92BF920F
:10191000CF92DF92EF92FF926B017C019B01AC01B1
:101920000E94FA26882319F062EE71E01AC046017F
:101930005701E894B7F82FEF3FEF4FE75FE7C50196
:10194000B4010E94FA26811112C02FEF3FEF4FE73A
:101950005FE7C501B4010E94C323181644F466EE84
:1019600071E081E095E00E94E2067C0183C02FEFE8
:101970003FEF4FE75FE4C701B6010E94E926181662
:101980001CF46AEE71E0EDCF2FEF3FEF4FE75FEC15
:10199000C701B6010E94C32387FDF3CF20E030E0EA
:1019A000A901C701B6010E94C32387FF0BC06DE2E6
:1019B00081E095E00E94C6045C01F7FAF094F7F824
:1019C000F09402C0A12CB12C2AE037ED43EA5BE38E
:1019D000C701B6010E943C252B013C010E949326C1
:1019E0006B017C010E94C8239B01AC01C301B201C1
:1019F0000E943B252B013C014AE0C701B6010E9431
:101A000084117C01EA0CFB1C6EE281E095E00E94EF
:101A1000C604E80EF91E20E030E040E251E4C301C4
:101A2000B2010E9429242B013C010E9493264B0104
:101A3000A12CB12C4AE0C501B4010E948411E80E2A
:101A4000F91EC501B4010E94C8239B01AC01C3016A
:101A5000B2010E943B2520E030E040E251E40E94C8
:101A600029240E94932680E090E04AE00E9484119D
:101A7000E80EF91E81E095E00E94F7068E0D9F1D8D
:101A8000FF90EF90DF90CF90BF90AF909F908F909E
:101A90007F906F905F904F900895CF93DF93BC013C
:101AA00080E090E04AE00E948411EC0181E095E042
:101AB0000E94F7068C0F9D1FDF91CF910895EF9242
:101AC000FF920F931F93CF93DF938C01D62F87E75D
:101AD0000E94AF10F801608185E994E00E947F04C4
:101AE0000E94C3108093EB04811123C0ED2E0D2EB4
:101AF000000CFF08B70187E790E00E94B9108091C1
:101B0000AC0390E02091AD03821B9109E816F90621
:101B1000E9F7C0E0CD177CF47801EC0EF11CC7FDAD
:101B2000FA9485E994E00E943E04F7018083CF5F38
:101B3000F1CF80E001C081E0DF91CF911F910F9143
:101B4000FF90EF9008950F931F93CF93DF9300D0F2
:101B5000CDB7DEB78B01898362E0CE0101960E948A
:101B60005F0D882351F089819A81982789279827CA
:101B7000F8019183808381E003C0F8011182108213
:101B80000F900F90DF91CF911F910F9108950F93B8
:101B90001F93CF93DF9300D0CDB7DEB78B0189833E
:101BA00062E0CE0101960E945F0D882351F0898189
:101BB0009A81982789279827F8019183808381E06B
:101BC00003C0F801118210820F900F90DF91CF9126
:101BD0001F910F91089590E0FC01EF5DFA4F249161
:101BE000FC01E35AFA4F3491FC01E75BFA4FE491B0
:101BF000EE2309F43CC0222339F1233091F038F46C
:101C00002130A9F0223001F584B58F7D12C0273034
:101C100091F02830A1F02430B9F4809180008F7DBC
:101C200003C0809180008F77809380000DC084B5C1
:101C30008F7784BD09C08091B0008F7703C08091F9
:101C4000B0008F7D8093B000F0E0EE0FFF1FE15CED
:101C5000FA4FA591B4919FB7F894611104C08C918B
:101C60003095382302C0EC913E2B3C939FBF0895E2
:101C70001092AD031092AC031092AF031092AE031A
:101C80001092F70381E08093F6031092F10361E074
:101C900082E10E94EB0D61E083E10E94EB0DE9EB34
:101CA000F0E080818E7F808380818D7F808380E2E1
:101CB0008093B80085E48093BC008CE294E090931C
:101CC000BA028093B9028DE294E09093B8028093B7
:101CD000B7020895CF93DF9390E0FC01E35AFA4FE7
:101CE0002491FC01E75BFA4F8491882361F190E035
:101CF000880F991FFC01E95EFA4FC591D491FC0150
:101D0000E15CFA4FA591B491611109C09FB7F894B5
:101D10008881209582238883EC912E230BC062302A
:101D200061F49FB7F8948881322F3095832388839C
:101D3000EC912E2B2C939FBF06C08FB7F894E881AF
:101D40002E2B28838FBFDF91CF9108958E3008F01E
:101D50008E508770806480937C0080917A008064CC
:101D600080937A0080917A0086FDFCCF8091780084
:101D70002091790090E0922B08958F929F92AF92DC
:101D8000BF92CF92DF92EF92FF926B017C010E9493
:101D90005B0C4B015C01C114D104E104F104F1F0CE
:101DA0000E945B0CDC01CB0188199909AA09BB09C7
:101DB000883E9340A105B10570F321E0C21AD10815
:101DC000E108F10888EE880E83E0981EA11CB11C82
:101DD000C114D104E104F10419F7DDCFFF90EF90B5
:101DE000DF90CF90BF90AF909F908F9008952FB7C6
:101DF000F8946091BC027091BD028091BE029091F6
:101E0000BF022FBF0895CF92DF92EF92FF920F9300
:101E10001F93CF93DF93CDB7DEB7C054D1400FB639
:101E2000F894DEBF0FBECDBF0E94F70E0091F504FF
:101E30001091F6042091F7043091F8046B017C01B5
:101E4000C01AD10AE20AF30A40EDC41647E0D406EC
:101E5000E104F10418F48091FD04BCC06093F50422
:101E60007093F6048093F7049093F8041092F004B2
:101E70001092EF041092EE041092ED041092EC0414
:101E800061E08091F1040E94EB0D6AEF70E080E068
:101E900090E00E94BD0E61E08091F1040E946A0E04
:101EA00060E08091F1040E94EB0D64E170E080E05D
:101EB00090E00E94BD0EF89461E08091F1040E94D0
:101EC000EB0D8CE490E00197F1F762E08091F10472
:101ED0000E946A0E80E190E00197F1F780E00E9495
:101EE0000D0C672B682B692B21F41092FD0478945C
:101EF0003EC081E00E940D0C672B682B692BA9F373
:101F00008E010F5F1F4F6E018FEBC81A8EEFD80A3C
:101F1000780180E00E940D0CF70160837183828359
:101F2000938381E00E940D0CF7016483758386839F
:101F30009783F8E0EF0EF11CEC14FD0451F7789450
:101F400020E030E0F801C080D180E280F38044815D
:101F5000558166817781C114D104E104F10429F02F
:101F6000411551056105710521F41092FD0480E0D1
:101F700031C0F90183E0F595E7958A95E1F7E451E1
:101F8000FB4F8081880FC416D506E606F70608F4D5
:101F9000816080832F5F3F4F085F1F4F28323105DC
:101FA00089F62091F00430E04091EC048091ED043A
:101FB00090E0840F911D4091EE04840F911D40919B
:101FC000EF04840F911D99272817390771F681E0D6
:101FD0008093FD04C05CDE4F0FB6F894DEBF0FBEE9
:101FE000CDBFDF91CF911F910F91FF90EF90DF90C8
:101FF000CF9008951F920F920FB60F9211242F9336
:102000003F938F939F93AF93BF938091BC02909126
:10201000BD02A091BE02B091BF023091BB0226E08A
:10202000230F2D3720F40296A11DB11D05C029E80C
:10203000230F0396A11DB11D2093BB028093BC0208
:102040009093BD02A093BE02B093BF028091C002E4
:102050009091C102A091C202B091C3020196A11D4C
:10206000B11D8093C0029093C102A093C202B093AD
:10207000C302BF91AF919F918F913F912F910F908C
:102080000FBE0F901F9018950F931F93CF93DF9360
:102090008C01C0E0D0E0F801EC0FFD1F64916623D5
:1020A00041F081E095E00E94C604892B11F0219651
:1020B000F2CFCE01DF91CF911F910F910895CF9371
:1020C000DF930E944410EC0181E095E00E94F70646
:1020D0008C0F9D1FDF91CF9108959091F70391117F
:1020E000FCCF91E09093F7039093F6032FEF2093AA
:1020F000F5031092F403260F2093F3039093F20359
:102100009091F203880F892B8093F2038091F10361
:10211000813061F41092F1038091F2038093BB004F
:102120008091BC0083FDF8CF85EC01C085EE8093E3
:10213000BC008091F7038130E1F38091F4038617AE
:1021400010F46091F403A1EDB3E0E1EBF3E080E083
:10215000861721F09D9191938F5FFACF089591E0BA
:102160009093B003809339051092AF031092AE03A1
:102170000895613208F060E20E946D101092AD0384
:102180008093AC0308953091AE03313208F04BC018
:102190008091F7038111FCCF9091390522E02093C3
:1021A000F70321E02093F6032FEF2093F50310921D
:1021B000F4033093F303ECE8F3E0A1EDB3E020E0A7
:1021C000321721F041914D932F5FFACF1092F20315
:1021D0002091F203990F922B9093F2039091F103C7
:1021E000913061F41092F1039091F2039093BB004F
:1021F0009091BC0093FDF8CF95EC01C095EE9093C3
:10220000BC009091F7039230E1F39091F5039F3F6A
:1022100079F08091F503803241F08091F5038033AD
:1022200031F084E005C081E003C082E001C083E0BA
:102230001092AF031092AE031092B0030895682F6E
:1022400085E994E00C947F04CF92DF92EF92FF92A5
:102250000F931F93CF93DF931092C4026093FC03FC
:102260007093FD038093FE039093FF0304EC12E050
:10227000C0E0D0E00E94F70E609300047093010468
:10228000809302049093030488EF93E00E941F035D
:1022900097FF1EC00E94F70EC0900004D09001046A
:1022A000E0900204F0900304DC01CB018C199D093D
:1022B000AE09BF09C090FC03D090FD03E090FE037F
:1022C000F090FF038C159D05AE05BF05E8F20AC02E
:1022D0008A30910539F0F80181938F012196C83C2D
:1022E000D10541F681E090E0CC2329F02091C40291
:1022F0002F3609F480E0DF91CF911F910F91FF906D
:10230000EF90DF90CF9008958F929F92AF92BF92FF
:102310000F931F93CF93DF93CDB7DEB7A1970FB67F
:10232000F894DEBF0FBECDBF19A2423008F44AE0D8
:102330008E010F5D1F4F842E912CA12CB12CA50175
:1023400094010E941F27E62FB901CA01015011090B
:10235000EA3014F4E05D01C0E95CD801EC93232B72
:10236000242B252B61F7B80181E095E00E94E2065D
:10237000A1960FB6F894DEBF0FBECDBFDF91CF910F
:102380001F910F91BF90AF909F908F900895CF9322
:10239000DF93CDB7DEB7C854D1090FB6F894DEBFCE
:1023A0000FBECDBF789484B5826084BD84B5816052
:1023B00084BD85B5826085BD85B5816085BD809110
:1023C0006E00816080936E00109281008091810088
:1023D0008260809381008091810081608093810080
:1023E000809180008160809380008091B100846042
:1023F0008093B1008091B00081608093B0008091A3
:102400007A00846080937A0080917A008260809361
:102410007A0080917A008E7F80937A0080917A0092
:10242000806880937A001092C1000E94F30B61E0F3
:1024300084E00E946A0E80E00E94180B61E08BE04D
:102440000E946A0E61E08AE00E946A0E61E081E10A
:102450000E946A0E61E080E10E946A0E61E087E0FE
:102460000E946A0E61E083E00E946A0E61E088E0EB
:102470000E946A0E61E08DE00E946A0E61E08EE0CB
:102480000E946A0E60E082E00E946A0E61E089E0CC
:102490000E946A0E109281001092850010928400B2
:1024A00081E08093B10015E00E94630B68EC70E05E
:1024B00080E090E00E94BD0E0E94810B68EC70E00D
:1024C00080E090E00E94BD0E115071F760E085E061
:1024D0000E94CA0B10921C0510921B0510921A053F
:1024E0001092190510921805109217058DEC90E0C6
:1024F00090931E0580931D0590910D05963108F06F
:1025000058C025E530E030931805209317052BECD3
:1025100030E030931A052093190520E930E030931C
:102520001C0520931B0540916800983058F031E05D
:102530009E3008F430E021E0822F01C0880F3A95E8
:10254000EAF701C084E0842B80936800983038F06B
:102550009E3040F0963148F42CE630E008C02DE67D
:1025600030E005C02BE630E002C020E030E03093E0
:10257000150520931405983030F481E001C0880FD0
:102580009A95EAF70EC0292F30E09E3018F42850B3
:10259000310902C02E50310981E001C0880F2A950F
:1025A000EAF78093160580911D0590911E0501970D
:1025B000F1F780911B0590911C05892B49F1E09161
:1025C000FF04F091000525E0E130F20709F13097B2
:1025D00039F0A389B4899C918589809589238C934E
:1025E00080911F058E7F80931F051092EF0110923E
:1025F000EE0181E095E0909300058093FF04E09167
:102600001405F0911505908180911605892B808322
:102610008DE092E00E945F1082E092E00E94441000
:1026200086EF91E00E94441083EF91E00E944410F5
:102630008AEE91E00E9444108AEA95E59093F101B8
:102640008093F0018BE092E09093F3018093F2018C
:1026500082E08093F40188E295E09093F601809304
:10266000F50180EE91E09093F8018093F70185E009
:102670008093F90180E090E0A0E6B0E48093FA0155
:102680009093FB01A093FC01B093FD0183E393E3DE
:10269000A3E5B0E48093FE019093FF01A0930002B4
:1026A000B093010280E090E0A0EABFE380930202D1
:1026B00090930302A0930402B09305020E945E0A65
:1026C0000E94DE0A0E94380E64E08EE00E947009CB
:1026D00085E292E00E94850980912A0290912B0266
:1026E000803E974094F58BED91E00E945F1061E091
:1026F0008AE00E94CA0B8BEC91E00E945F1080EE92
:1027000097E090932B0280932A0288E0809329021D
:1027100084E18093280280E18093270289E28093FC
:1027200026021092250285E292E00E94FD0985E2D0
:1027300092E00E94850920E030E040E050E06AE04D
:1027400070E088E092E00E94AA0880E00E94180BE6
:1027500081E080930602AE014F5F5F4F1A01C09087
:102760001201D0901301E0901401F0901501299608
:10277000CCAEDDAEEEAEFFAE299780910602882387
:1027800009F42EC680913202909133020197C9F468
:102790000E94810B1AE00E94C80A64E670E080E0A3
:1027A00090E00E94BD0E60E08AE00E94EB0D64E6BE
:1027B00070E080E090E00E94BD0E115061F70E9431
:1027C000C80A99E288E10FB6F894A8958093600052
:1027D0000FBE9093600086E694E00E945F10109216
:1027E00006020E94DE0A84E10E94A60E84E10E9495
:1027F000A60EBC01990F880B990B0E94CA239B015E
:10280000AC0160E070E080E295E40E941A269B0132
:10281000AC016091FE017091FF01809100029091E6
:1028200001020E94C32387FFF4C410923102109268
:10283000300284E594E00E945F1085E292E00E94FD
:102840008509A895C0900202D0900302E09004028E
:10285000F0900502C9AEDAAEEBAEFCAE8091F901A4
:10286000E82EF12CF8AEEFAA0E94F70E86E08093D6
:1028700081000E94F70E28EE33E0E29EA001E39E65
:10288000500DF29E500D11248A01550F220B330B6F
:1028900068017901C60ED71EE81EF91E2196CCAE3E
:1028A000DDAEEEAEFFAE2197A8950E94380E61EA2C
:1028B00074E08AEA0E94A30D882309F447C063EA02
:1028C00074E08CEA0E94A30D882309F43FC065EAF6
:1028D00074E08EEA0E94A30D8823C1F161EB74E0DD
:1028E00080EB0E94C70D882389F163EB74E082EBD3
:1028F0000E94C70D882351F165EB74E084EB0E94C0
:10290000C70D882319F167EA74E086EB0E94A30DD6
:102910008823E1F069EA74E088EB0E94A30D882324
:10292000A9F06BEA74E08AEB0E94A30D882371F092
:102930006DEA74E08CEB0E94A30D882339F06FEAF6
:1029400074E08EEB0E94A30D811122C662E080919B
:10295000F1040E946A0E20E338EF4FEF5FEF2093FF
:10296000F5043093F6044093F7045093F8040E9462
:10297000380E8EE10E94AF1062E085E994E00E947B
:102980007F0460E085E994E00E947F040E94C31008
:102990008EE10E94AF1061E085E994E00E947F041F
:1029A00060E285E994E00E947F040E94C31080E207
:1029B00090E0909324058093230580E090E8A9E8B7
:1029C000B4E48093040190930501A0930601B093B1
:1029D0000701C12CD12CF5E7EF2EF4E4FF2EC092B5
:1029E0000001D0920101E0920201F092030184E122
:1029F0000E94A60E84E10E94A60EBC01990F880BCE
:102A0000990B0E94CA239B01AC0160E070E080E258
:102A100095E40E941A2660931D0270931E02809313
:102A20001F029093200285E10E94A60E9093160249
:102A3000809315028FE00E94A60E90931C02809353
:102A40001B0214EF19838EE28A8387E70E94AF107E
:102A500042E050E0B10185E994E00E9452040E94F6
:102A6000C3108093EB04811181C1A89565E070E0EB
:102A700080E090E00E94BD0E06EF098362E0C10194
:102A80000E945F0D882309F471C1698170E080E0C4
:102A900090E00E94CA2320E030E040E853E40E9426
:102AA00029246B017C016A8170E080E090E00E9443
:102AB000CA239B01AC01C701B6010E943C252091AD
:102AC000BB043091BC044091BD045091BE040E94EF
:102AD0003B252091B7043091B8044091B90450913E
:102AE000BA040E9429246B017C012091C304309117
:102AF000C4044091C5045091C6040E943C259B012A
:102B0000AC016091BF047091C0048091C1049091A8
:102B1000C2040E941A26A70196010E943C252B019F
:102B20003C0119831A8387E70E94AF1042E050E00E
:102B3000B10185E994E00E9452040E94C310809381
:102B4000EB04811113C1A8956AE170E080E090E088
:102B50000E94BD0E098363E0C1010E945F0D8823BE
:102B600009F404C120E030E048EC51E4C301B201B3
:102B70000E943B256B017C019B01AC010E94292432
:102B80006BAB7CAB8DAB9EAB698170E080E090E07D
:102B90000E94CA2320E030E040E853E40E94292448
:102BA0004B015C016A8170E080E090E00E94CA23E2
:102BB0009B01AC01C501B4010E943C254B015C01A5
:102BC0006B8170E080E090E00E94CA2320E030E05A
:102BD00040E85BE30E9429249B01AC01C501B401DC
:102BE0000E943C254B015C012091CF043091D00420
:102BF0004091D1045091D2046BA97CA98DA99EA9C2
:102C00000E94292425966CAF7DAF8EAF9FAF25978C
:102C10002091CB043091CC044091CD045091CE044E
:102C2000C701B6010E9429249B01AC0125966CAD19
:102C30007DAD8EAD9FAD25970E943C252091C704A8
:102C40003091C8044091C9045091CA040E943C25A7
:102C50009B01AC01C501B4010E943B254B015C0105
:102C60002091DB043091DC044091DD045091DE04BE
:102C70006BA97CA98DA99EA90E9429246BAB7CAB72
:102C80008DAB9EAB2091D7043091D8044091D904EC
:102C90005091DA04C701B6010E9429249B01AC01BE
:102CA0006BA97CA98DA99EA90E943C252091D304E3
:102CB0003091D4044091D5045091D6040E943C2513
:102CC0009B01AC01C501B4010E941A266B017C0175
:102CD0009B01AC010E9429242091E7043091E80473
:102CE0004091E9045091EA040E9429244B015C01BF
:102CF0002091E3043091E4044091E5045091E6040E
:102D0000C701B6010E9429249B01AC01C501B40191
:102D10000E943C252091DF043091E0044091E104C1
:102D20005091E2040E943C256B017C01A3019201B9
:102D3000C301B2010E94FA26811108C040920D021F
:102D400050920E0260920F0270921002A70196013B
:102D5000C701B6010E94FA26811108C0C092110273
:102D6000D0921202E0921302F09214020E94030F1A
:102D7000882309F449C08091F2048B3029F170F165
:102D80008551823058F56091EC0470E080E090E06D
:102D90000E94C82320E030E040E853E40E94292448
:102DA0006B017C016091ED0470E080E090E00E9496
:102DB000CA23A70196010E943C252DEC3CEC4CEC6B
:102DC0005DE30E94292407C06091EC0470E080E07C
:102DD00090E00E94C8236B017C0106C0C12CD12C5D
:102DE000E0ECEE2EEFE7FE2EA7019601C701B6013B
:102DF0000E94FA26811108C0C0921702D0921802D0
:102E0000E0921902F0921A020E94030F882309F43B
:102E100054C08091F2048B3029F0C8F18551823082
:102E200058F035C06091EE0470E080E090E00E94C0
:102E3000C8236B017C0131C01091EE04612F6F77C4
:102E400070E080E090E00E94CA2320E030E040E89B
:102E500053E40E9429246B017C016091EF0470E02F
:102E600080E090E00E94CA23A70196010E943C25C1
:102E70002DEC3CEC4CEC5DE30E9429246B017C01C1
:102E800017FF0BC0F7FAF094F7F8F09406C0C12CC6
:102E9000D12C70ECE72E7FE7F72EA7019601C70132
:102EA000B6010E94FA26811108C0C0920902D09290
:102EB0000A02E0920B02F0920C02B10180E295E06E
:102EC0000E94A3052D893E894F89588D698D7A8D81
:102ED0008B8D9C8D0E94BB2524E632E84AE85FE397
:102EE0000E943B256B017C0120E030E0A9010E949B
:102EF000C32387FF0AC02BED3FE049EC50E4C70134
:102F0000B6010E943C256B017C012BED3FE049ECB2
:102F100050E4C701B6010E94E926181654F42BEDBF
:102F20003FE049EC50E4C701B6010E943B256B012C
:102F30007C0121EE3EE245E652E4C701B6010E9463
:102F400029240E948C2670932202609321020E9401
:102F5000F70E2196CCACDDACEEACFFAC21976C1536
:102F60007D058E059F0510F4A895F1CF2091840072
:102F7000309185008CE390E06FA978AD0E940B271B
:102F8000CB01829FB001839F700D929F700D112421
:102F900080E090E00E94C82329AD3AAD4BAD5CAD16
:102FA0000E9429240E949326709324026093230296
:102FB00010928100109285001092840081E095E0CB
:102FC0000E94F7068DE992E00E945F108091250231
:102FD0001F928F93809126021F928F9380912702D8
:102FE0001F928F93809128021F928F9380912902C4
:102FF0001F928F9380912B028F9380912A028F933F
:1030000088E691E09F938F931F9288EC8F9384ECD6
:1030100092E09F938F930E94902864EC72E081E08D
:1030200095E00E94FB068DE892E00E944410C0905B
:103030003002D09031020D2C000CEE08FF080FB6C4
:10304000F894DEBF0FBECDBFF7FE0EC06DE281E08B
:1030500095E00E94C60466277727CB016C197D098D
:103060008E099F094AE003C04AE0C701B6010E94E9
:10307000841181E095E00E94F70685E892E00E94C5
:10308000441060911D0270911E0280911F02909168
:1030900020020E94800C8AE792E00E9444108091F6
:1030A0002102909122020E944D0D8CE692E00E9436
:1030B000441080912302909124020E944D0D80E6DD
:1030C00092E00E94441060910D0270910E02809176
:1030D0000F02909110020E94800C84E592E00E9401
:1030E00044106091090270910A0280910B02909144
:1030F0000C020E94800C88E492E00E9444106091CF
:1031000011027091120280911302909114020E9498
:10311000800C8AE392E00E94441080911502909105
:1031200016020E944D0D8EE292E00E9444106091C2
:103130001702709118028091190290911A020E9450
:10314000800C86E494E00E945F100FB6F894A89576
:1031500080916000886180936000109260000FBED3
:1031600013E064E971E088EF93E00E94FB0688EFCA
:1031700093E00E94C60368EE73E080E090E00E9456
:103180002411892B09F025C38AE693E00E945F1081
:103190001092C40267E971E088EF93E00E94FB0699
:1031A00088EF93E00E94C60368EA71E680E090E051
:1031B0000E942411892B09F412C30E944B0B67E96A
:1031C00071E088EF93E00E94FB0688EF93E00E9495
:1031D000C60368EA71E680E090E00E942411892B22
:1031E00009F4FDC283E00E94A50B83E593E00E94F1
:1031F0005F10A89599E288E10FB6F894A89580939E
:1032000060000FBE90936000A8950E945E0AA8958A
:1032100004C08DE194E00E945F1083E094E00E947E
:103220005F10A89588E60E94AF106FE085E994E0F2
:103230000E947F040E94C31061E070E088E690E085
:103240000E94B91085E994E00E943E04682F6D7FCA
:103250008FE00E9470091091F401C1010E9485095C
:103260008A81612F0E94FF26189F600D11246C3304
:1032700008F06C532996CCACDDACEEACFFAC2997D2
:10328000CDA2DEA2EFA2F8A668AB19AA1AAA88E618
:103290000E94AF108BE090E00E941F117E0120E39E
:1032A000E20EF11C8E010B5D1F4FD12C5AE0C52E92
:1032B00032E0D31203C080EC90E011C0D7018C91B2
:1032C0006C2D0E94FF26292FB0E18B9F200D112429
:1032D000F8018081F0E88F9FC0011124822B0E94A9
:1032E0001F11D3942FEFE21AF20A0F5F1F4F33E042
:1032F000D312DECF0E94C31066E08EE00E947009F8
:1033000080E00E94180B0FB6F894A8958091600099
:10331000886180936000109260000FBE20912702A8
:103320008091260290E04CE3249F800D911D112492
:103330002091F5013091F6012817390738F02091D6
:10334000F7013091F8018217930788F52091150253
:10335000309116028091F2019091F30128173907FC
:10336000E8F42091FA013091FB014091FC01509169
:10337000FD0160911D0270911E0280911F029091CB
:1033800020020E94E92618164CF481E090E0909308
:103390003302809332028CEE93E00FC082E090E023
:1033A000909333028093320284ED93E006C0109232
:1033B00033021092320288EC93E00E945F108CEF8F
:1033C0009BE09093090180930801809169008C7FB4
:1033D000826080936900E89A61E082E00E94CA0BF3
:1033E00080913202909133028130910579F018F08A
:1033F000029709F0CAC00E94810B86EA93E00E94FE
:103400005F1020E030E040E050E0B9C00E94810B46
:1034100020E030E0A9016091090270910A028091D8
:103420000B0290910C020E94C3231816BCF01AE004
:103430000E94630B64E670E080E090E00E94BD0EA5
:103440000E94810B64E670E080E090E00E94BD0E77
:10345000115071F761E08EE00E94EB0D0E94C80AE6
:103460002DEC3CEC4CEC5DE36091FA017091FB01BA
:103470008091FC019091FD010E943C259B01AC01D3
:1034800060911D0270911E0280911F029091200296
:103490000E94E9269091070218169CF59130C1F020
:1034A00080F09230F9F0933049F50E94C00A61E053
:1034B00088E00E94EB0D61E08DE00E94EB0D84E05E
:1034C0000EC00E94C00A61E08BE00E94EB0D22C09A
:1034D0000E94C40A61E08BE00E94EB0D82E08093C1
:1034E000070226C00E94C40A61E087E00E94EB0D3B
:1034F00061E083E00E94EB0D83E0F1CF0E94630B5B
:1035000015C0992329F0913039F40E94C40AE6CFFE
:103510000E94C00A81E0E3CF0E94C40A61E087E014
:103520000E94EB0D61E083E00E94EB0D1092070218
:103530008CE893E00E945F102DEC3CEC4CEC5DE3DA
:103540006091FA017091FB018091FC019091FD0165
:103550000E943C259B01AC0160911D0270911E02EE
:1035600080911F02909120020E94E92620E030E025
:1035700040E050E018161CF469E070E002C06AE018
:1035800070E088E092E00E94AA080E94E803F5C873
:103590006091A5047091A604072E000C880B990B6E
:1035A0000E94CA2320E030E040EA5BE30E94292425
:1035B0002B013C016091B1047091B20480E090E075
:1035C0000E94C8232FE632E143E053E30E942924FE
:1035D0006B017C016091A7047091A804072E000C78
:1035E000880B990B0E94CA2320E030E048EC57E397
:1035F0000E9429244B015C016091B3047091B404D2
:1036000080E090E00E94C8232DEC3CEC4CE454E3B5
:103610000E9429246093B7047093B8048093B9047E
:103620009093BA046091B5047091B60480E090E084
:103630000E94C8236093BB047093BC048093BD04B4
:103640009093BE046091AD047091AE04072E000CFF
:10365000880B990B0E94CA232AE037ED43EA5DE309
:103660000E9429246093BF047093C0048093C10416
:103670009093C2046091AF047091B004072E000CC7
:10368000880B990B0E94CA2320E030E040E253E40B
:103690000E941A266093C3047093C4048093C504E7
:1036A0009093C6046091A1047091A204072E000CAF
:1036B000880B990B0E94CA236093C7047093C804B7
:1036C0008093C9049093CA046091A3047091A404E8
:1036D000072E000C880B990B0E94CA2320E030E0D3
:1036E00040EA5CE30E9429246093CB047093CC04ED
:1036F0008093CD049093CE046091A9047091AA04A4
:10370000072E000C880B990B0E94CA2320E030E0A2
:1037100048E45AE30E9429246093CF047093D004B4
:103720008093D1049093D20420E030E040E057E44D
:10373000C701B6010E9429246093D3047093D40476
:103740008093D5049093D604A7019601C301B201DA
:103750000E9429246093D7047093D8048093D904DD
:103760009093DA04A5019401C701B6010E942924AF
:103770006093DB047093DC048093DD049093DE049B
:103780004CEEC42E41E5D42E47E1E42E40E4F42E65
:10379000C092DF04D092E004E092E104F092E204EF
:1037A00020E334E34EE75FE32093E3043093E40443
:1037B0004093E5045093E60480E097E5A4E9B6E37E
:1037C0008093E7049093E804A093E904B093EA049B
:1037D000BDC8115009F4DCC20E944B0BC2CC80E47E
:1037E00093E00E945F10809125021F928F93809139
:1037F00026021F928F93809127021F928F938091B0
:1038000028021F928F93809129021F928F9380919B
:103810002B028F9380912A028F938DE991E09F93E1
:103820008F938FEF8F9388EC782E7F9294ECE92E14
:1038300092E0F92EFF92EF920E949028F7010190FA
:103840000020E9F73197DF01A45CB2406D0160917F
:10385000090270910A0280910B0290910C02810181
:1038600021E043E00E94D81F3F922F922CEBA22E22
:1038700021E0B22EBF92AF92872D8C19282F082EEF
:10388000000C330B3F938F938C2DCC0C990B8C53E6
:103890009D4F9F938F930E949028F70101900020E5
:1038A000E9F731979F01245C3240690160910D0274
:1038B00070910E0280910F029091100221E043E07E
:1038C0000E94D81F3F922F92BF92AF92872D8C19E2
:1038D000282F082E000C330B3F938F938C2DCC0C8C
:1038E000990B8C539D4F9F938F930E949028F701C3
:1038F00001900020E9F73197AF01445C52406A0122
:103900000FB6F894DEBF0FBECDBF6091110270916B
:103910001202809113029091140221E043E00E9470
:10392000D81F3F922F92BF92AF92872D8C19282FCC
:10393000082E000C330B3F938F938C2DCC0C990BDE
:103940008C539D4F9F938F930E949028F701019075
:103950000020E9F73197E45CF240809116028F93E2
:10396000809115028F9339EC832E31E0932E9F9234
:103970008F92872D8E1B282F082E000C330B3F9320
:103980008F930E2E000CFF0BEC53FD4FFF93EF9324
:103990000E949028F70101900020E9F73197DF019C
:1039A000A45CB2406D016091170270911802809181
:1039B000190290911A0221E043E00E94D81F3F9221
:1039C0002F92BF92AF92872D8C19282F082E000CB2
:1039D000330B3F938F938C2DCC0C990B8C539D4FB5
:1039E0009F938F930E949028F70101900020E9F7A0
:1039F0003197E45CF24080911C028F9380911B020E
:103A00008F939F928F92872D8E1B282F082E000C4C
:103A1000330B3F938F930E2E000CFF0BEC53FD4F97
:103A2000FF93EF930E949028F70101900020E9F79F
:103A300031979F01245C324069010FB6F894DEBFD4
:103A40000FBECDBF60911D0270911E0280911F02BA
:103A50009091200222E043E00E94D81F3F922F92D3
:103A6000BF92AF92872D8C19282F082E000C330B94
:103A70003F938F938C2DCC0C990B8C539D4F9F9320
:103A80008F930E949028F70101900020E9F7319769
:103A9000E45CF240809131028F93809130028F93E9
:103AA000809133028F93809132028F938091240210
:103AB0008F93809123028F93809122028F93809124
:103AC00021028F9380EC91E09F938F937E1A872D34
:103AD000072C000C990B9F937F920E2E000CFF0B6E
:103AE000EC53FD4FFF93EF930E9490286DEC71E033
:103AF00081E095E00E94E206B70181E095E00E9436
:103B0000FB06B70188EF93E00E94FB0688EF93E085
:103B10000E94C60368EA71E680E090E00E942411EA
:103B20000FB6F894DEBF0FBECDBF892B21F580E222
:103B300093E00E945F1004EC12E0F801119233E070
:103B4000EC38F307D9F76AE971E088EF93E00E9457
:103B5000FB0688EF93E00E94C60368EA71E680E006
:103B600090E00E942411892B71F085E00E94A50B42
:103B700089E093E03CCB84E00E94A50B8FE293E0C8
:103B80000E945F10D4CF84EF92E00E945F1064EC3B
:103B900072E081E095E00E94FB068091C4028F36BE
:103BA00009F027CB8AEE92E00E94441064EC72E0A8
:103BB00081E095E00E94FB0680E090E0D8012C9126
:103BC000222369F02C3731F4F101E80FF11D9083C5
:103BD0001C928F5F9F5F0F5F1F4F983C79F78E306D
:103BE00019F089ED92E003CB898190E08B539D4FD2
:103BF0000E94FC1F9BA78AA78A8190E08B539D4F50
:103C00000E94FC1F89A78B8190E08B539D4F0E94DF
:103C1000FC1F88A78C8190E08B539D4F0E94FC1F56
:103C2000F82E8FA38D8190E08B539D4F0E94FC1F37
:103C30008C018EA38E8190E08B539D4F0E94FC1FC0
:103C40008DA385E292E00E94850920912702809150
:103C5000260290E0BCE32B9F800D911D11241127BB
:103C6000ECE3FE9E000D111D1124801B910B97FFAC
:103C700003C0919581959109069744F084EC92E0F8
:103C80000E945F10CE0185960E94FD098F8190E011
:103C90008B539D4F0E94FC1F9093F3018093F20180
:103CA000888590E08B539D4F0E94FC1F8093F40108
:103CB0008A8590E08B539D4F0E94FC1F9093F601E4
:103CC0008093F501898590E08B539D4F0E94FC1FE6
:103CD0009093F8018093F7018B8590E08B539D4F73
:103CE0000E94FC1F8093F9018C8590E08B539D4FBF
:103CF0000E94F81F6B017C0120E030E040E450E4BA
:103D00000E94C32387FF06C0C12CD12C60E6E62E9B
:103D100060E4F62EC092FA01D092FB01E092FC0121
:103D2000F092FD018D8590E08B539D4F0E94F81F0E
:103D30006B017C0120E030E040E450E40E94C323AA
:103D400087FD09C0C092FE01D092FF01E0920002FF
:103D5000F09201020CC023E333E343E550E42093E7
:103D6000FE013093FF0140930002509301028E85C3
:103D700090E08B539D4F0E94F81F60930202709356
:103D80000302809304029093050287EB92E02FCA0E
:103D900082E00E94A50B88E793E029CA8EE391E0B8
:103DA00090930205809301058091FF049091000596
:103DB0008150954071F4E0911405F09115059081C2
:103DC00080911605809589238083109200051092BA
:103DD000FF0408951092FB031092FA0388EE93E01B
:103DE000A0E0B0E08093FC039093FD03A093FE035A
:103DF000B093FF032AE131E03093F9032093F803F5
:103E000025EC30E0309305042093040424EC30E0EA
:103E1000309307042093060420EC30E0309309042B
:103E20002093080421EC30E030930B0420930A0423
:103E300022EC30E030930D0420930C0426EC30E0AB
:103E400030930F0420930E04109211041092120468
:103E50001092130410921404109298041092970474
:103E60008093990490939A04A0939B04B0939C042C
:103E70002CE231E030939604209395042EE531E056
:103E8000309321052093200549E350E360E070E082
:103E90004093350550933605609337057093380588
:103EA00026E02093F10426E12093F204E3E6F5E016
:103EB000E491E093F304EFE4F5E0E491E093F4049B
:103EC00040E45FE160E070E04093F9045093FA044D
:103ED0006093FB047093FC04209161001092040530
:103EE000109203058093050590930605A09307059E
:103EF000B09308058EE391E090930205809301054D
:103F0000109218051092170510921A0510921905B3
:103F100010921C0510921B0510921E0510921D0593
:103F200060911F056E7F6D7F60931F0566956170C0
:103F300081E068278CE00E94EB0D61E08CE00E943C
:103F40006A0EE9E6F5E0E491E0931105E5E5F5E0B8
:103F5000E491F0E0EE0FFF1FE15CFA4F8591949140
:103F6000909313058093120560E080E00E946A0E32
:103F700080911F0581FD04C061E080E00E94EB0D8F
:103F800010920D05EDE5F5E0E491E0930E05E9E40E
:103F9000F5E0E491F0E0EE0FFF1FEB5CFA4F859146
:103FA00094919093100580930F058091610008957E
:103FB000EF920F931F93CF93DF93E80147FD02C069
:103FC00034E001C034E1042E000C550B57FF03C050
:103FD000519541955109E32E022F242FAE010E94E5
:103FE0002220CE01DF91CF911F910F91EF90089584
:103FF000662777270C947C21FC0188279927E89471
:1040000021912032E9F3293010F02E30C8F32B3201
:1040100041F02D3239F4689404C00E941A20820FB6
:10402000911D219120532A30C0F31EF49095819563
:104030009F4F08957AE0979F902D879F802D910D37
:1040400011240895A9E0B0E0E8E2F0E20C94FB242A
:104050006A01122FB02E2BE3201720F0FF24F394D7
:10406000F00E02C02CE3F22E0F2D27E0AE014F5FC1
:104070005F4F0E94CA22BC014981842F8970813020
:1040800031F0E1FC06C0E0FE06C090E205C09DE212
:1040900003C09BE201C090E05E2D507143FF3CC025
:1040A000911102C083E001C084E0811718F4212F30
:1040B000281B01C020E051110BC0F601822F30E215
:1040C000882319F031938150FBCFC20ED11C20E020
:1040D000992329F0D6019C93F60131966F01C60110
:1040E0000396E2FE0AC03EE4D6013C9341E41196F9
:1040F0004C93119712963C9306C03EE6F60130832E
:1041000041E641833283FC01322F40E2332309F43C
:1041100042C041933150FACF42FF44C0911102C0D6
:1041200083E001C084E0811718F4212F281B01C00F
:1041300020E051110BC0F601822F30E2882319F0E4
:1041400031938150FBCFC20ED11C20E0992329F07E
:10415000D6019C93F60131966F01C6010396E2FEEB
:104160000BC039E4D6013C933EE411963C93119781
:1041700036E412963C9307C039E6F60130833EE6FA
:10418000318336E63283FC01322F40E2332319F0CB
:1041900041933150FBCFFC01E20FF11D10828EEFF5
:1041A0009FEFA6C021E030E0911102C020E030E096
:1041B000161617061CF4FB01319602C0E1E0F0E090
:1041C0002E0F3F1FBB2021F0EB2DF0E0319602C0F7
:1041D000E0E0F0E02E0F3F1FE12FF0E02E173F0749
:1041E0001CF4121B212F01C020E08E2D887159F480
:1041F000F601822F30E2882319F031938150FBCFF2
:10420000C20ED11C20E0992329F0D6019C93F6011F
:1042100031966F0151110BC0F601822F90E3882374
:1042200019F091938150FBCFC20ED11C20E00F2DCD
:10423000060F9A81342F307144FF03C0913309F483
:104240000150101624F4093018F008E001C001E014
:10425000AB0177FF02C040E050E0FB01E41BF50B2F
:10426000A1E0B0E0AC0FBD1FEA0FFB1F8EE2A82E4D
:104270004B01801A91080B2D10E011950195110941
:104280004F3FBFEF5B0721F4D601AC9211966D0151
:10429000641775072CF08416950614F4818101C00B
:1042A00080E3415051093196D60111967D014017A6
:1042B000510724F0D6018C936701E2CF641775078C
:1042C00039F4963320F4953319F4311101C081E3A8
:1042D000F6018083F701822F90E2882319F09193F1
:1042E0008150FBCFF701E20FF11D108280E090E0DA
:1042F0002996ECE00C941725A0E0B0E0E2E8F1E2AA
:104300000C94FB24EC016B016115710519F0FB01A4
:10431000918380837E01FFEFEF1AFF0A0881802FCF
:1043200090E00E94A223892B11F0E701F3CF0D3218
:1043300039F47E0182E0E80EF11C098111E008C029
:104340000B3229F47E0192E0E90EF11C098110E0A4
:10435000E701219743E050E06EE970E0CE010E9452
:10436000AB23892BC1F4239645E050E069E970E066
:10437000CE010E94AB23892B09F42596C114D104E8
:1043800019F0F601D183C0831111F6C060E070E02E
:1043900080E89FE7FAC043E050E066E970E0CE01B4
:1043A0000E94AB23892B59F4C114D10409F4E9C04C
:1043B000F2E0EF0EF11CF601F182E082E2C020E0B3
:1043C00030E0A901C0E0D0E0F70180EDA82EA00EFA
:1043D00089E08A1530F1912F9260B92E812F887073
:1043E00012FF04C0811124C0219622C0811121979F
:1043F000A5E0B0E00E94EA24DC01CB01880F991F00
:10440000AA1FBB1F9C01AD012A0D311D411D511D6D
:10441000283989E93807480789E1580748F01660C4
:1044200006C09EEFA9120AC013FD40C01860B12E4D
:104430008FEFE81AF80A00811B2DC6CF802F8F7DE1
:104440008534A1F580818D3211F4106106C08B3264
:1044500021F0319661E070E004C08181329662E023
:1044600070E080538A3018F0E61BF70B1FC060E045
:1044700070E060389CE079075CF4DB01AA0FBB1F99
:10448000AA0FBB1F6A0F7B1F660F771F680F711D76
:104490003196DF0111978C9180538A3050F314FFCD
:1044A00003C0719561957109C60FD71F11FF08C030
:1044B000C114D10429F0CF010197F60191838083C3
:1044C000CA01B9010E94C823212F2370233019F09B
:1044D0004B015C0106C04B015C01B7FAB094B7F820
:1044E000B09420E030E0A901C501B4010E94C323CB
:1044F000882309F43EC0D7FF06C0D195C195D109E4
:1045000005EB10E002C00DEC10E06801F8E1CF1AF5
:10451000D10890E2E92EF12CCE15DF0574F0F801F8
:104520002591359145915491C501B4010E942924EA
:104530004B015C01CE19DF09EFCF04501109F5944E
:10454000E7940C151D0541F78A2D880F8B2D881FC8
:104550008F3F49F020E030E0A901C501B4010E947D
:10456000C323811106C082E290E090933B058093C3
:104570003A05C501B40109C060E070E080E89FEF32
:1045800004C060E070E080EC9FE7CDB7DEB7ECE000
:104590000C941725283008F027E03327DA01990F0B
:1045A000311D87FD916000966105710539F4326017
:1045B0002E5F3D9330E32A95E1F708959F3F30F059
:1045C00080387105610509F03C5F3C5F3D93913097
:1045D00008F08068911DDF93CF931F930F93FF9294
:1045E000EF92192F987F9695E92F96959695E90F5A
:1045F000FF27E55DFE4F99273327EE24FF24A7010F
:10460000E70105900894079428F4360FE71EF81E7A
:10461000491F511D660F771F881F991F0694A1F728
:104620000590079428F4E70EF81E491F561FC11D78
:10463000770F881F991F661F0694A1F705900794AE
:1046400028F4F80E491F561FC71FD11D880F991F48
:10465000661F771F0694A1F70590079420F4490F71
:10466000561FC71FD81F990F661F771F881F0694F4
:10467000A9F784911095177041F0D695C795579575
:104680004795F794E7941A95C1F7E1EDF0E0689447
:104690001590159135916591959105907FE27395EF
:1046A000E118F10A430B560BC90BD009C0F7E10C16
:1046B000F11E431F561FC91FD01D7EF4703311F425
:1046C0008A95E6CFE894015030F0080F0AF40027ED
:1046D000021708F4202F2395022F7A3328F079E36C
:1046E0007D932A95E9F710C07D932A9589F6069463
:1046F00097956795379517951794E118F10A430B2D
:10470000560BC90BD00998F023957E9173957A3397
:1047100008F070E37C932013B8F77E9170617D936D
:1047200030F0839571E37D9370E32A95E1F71124CE
:10473000EF90FF900F911F91CF91DF91992787FD07
:104740009095089591110C949624803219F0895017
:104750008550C8F70895FB01DC014150504088F0B6
:104760008D9181341CF08B350CF4805E6591613441
:104770001CF06B350CF4605E861B611171F3990BB4
:104780000895881BFCCF0E94052408F481E0089559
:10479000E89409C097FB3EF49095809570956195DB
:1047A0007F4F8F4F9F4F9923A9F0F92F96E9BB2791
:1047B0009395F695879577956795B795F111F8CF0D
:1047C000FAF4BB0F11F460FF1BC06F5F7F4F8F4F78
:1047D0009F4F16C0882311F096E911C0772321F06E
:1047E0009EE8872F762F05C0662371F096E8862F06
:1047F00070E060E02AF09A95660F771F881FDAF75D
:10480000880F9695879597F90895990F0008550F89
:10481000AA0BE0E8FEEF16161706E807F907C0F046
:1048200012161306E407F50798F0621B730B840B4E
:10483000950B39F40A2661F0232B242B252B21F428
:1048400008950A2609F4A140A6958FEF811D811DC8
:1048500008950E943C240C94B0240E94A22438F0B5
:104860000E94A92420F0952311F00C9499240C9413
:104870009F2411240C94E4240E94C12470F3959F7A
:10488000C1F3950F50E0551F629FF001729FBB2747
:10489000F00DB11D639FAA27F00DB11DAA1F649FE3
:1048A0006627B00DA11D661F829F2227B00DA11D96
:1048B000621F739FB00DA11D621F839FA00D611D1C
:1048C000221F749F3327A00D611D231F849F600D3D
:1048D000211D822F762F6A2F11249F5750409AF066
:1048E000F1F088234AF0EE0FFF1FBB1F661F771FF2
:1048F000881F91505040A9F79E3F510580F00C94BD
:1049000099240C94E4245F3FE4F3983ED4F3869515
:1049100077956795B795F795E7959F5FC1F7FE2B5C
:10492000880F911D9695879597F90895992788275F
:10493000089597F99F6780E870E060E008959FEF21
:1049400080EC089500240A94161617061806090626
:10495000089500240A9412161306140605060895F5
:10496000092E0394000C11F4882352F0BB0F40F47D
:10497000BF2B11F460FF04C06F5F7F4F8F4F9F4FBD
:10498000089557FD9058440F551F59F05F3F71F03F
:104990004795880F97FB991F61F09F3F79F08795A6
:1049A0000895121613061406551FF2CF4695F1DF2F
:1049B00008C0161617061806991FF1CF86957105BF
:1049C000610508940895E894BB2766277727CB01F3
:1049D00097F908950E942C25A59F900DB49F900DE6
:1049E000A49F800D911D112408952F923F924F9204
:1049F0005F926F927F928F929F92AF92BF92CF926F
:104A0000DF92EF92FF920F931F93CF93DF93CDB777
:104A1000DEB7CA1BDB0B0FB6F894DEBF0FBECDBFEF
:104A200009942A88398848885F846E847D848C84C0
:104A30009B84AA84B984C884DF80EE80FD800C81C9
:104A40001B81AA81B981CE0FD11D0FB6F894DEBFAC
:104A50000FBECDBFED010895A29FB001B39FC0016D
:104A6000A39F700D811D1124911DB29F700D811D9A
:104A70001124911D08955058BB27AA270E94532541
:104A80000C94B0240E94A22438F00E94A92420F0A3
:104A900039F49F3F19F426F40C949F240EF4E0950A
:104AA000E7FB0C949924E92F0E94C12458F3BA170C
:104AB000620773078407950720F079F4A6F50C9434
:104AC000E3240EF4E0950B2EBA2FA02D0B01B901B3
:104AD00090010C01CA01A0011124FF27591B99F074
:104AE000593F50F4503E68F11A16F040A22F232F80
:104AF000342F4427585FF3CF469537952795A795D0
:104B0000F0405395C9F77EF41F16BA0B620B730B76
:104B1000840BBAF09150A1F0FF0FBB1F661F771FE7
:104B2000881FC2F70EC0BA0F621F731F841F48F49C
:104B3000879577956795B795F7959E3F08F0B0CF25
:104B40009395880F08F09927EE0F9795879508950C
:104B50000E94A22460F080E891E009F49EEF0E9498
:104B6000A92428F040E851E071F45EEF0CC00C94E9
:104B70009F240C94E324E92FE0780E94C12440F3A1
:104B8000092E052AB1F3261737074807590738F0C9
:104B90000E2E07F8E02569F0E025E0640AC0EF6317
:104BA00007F8009407FADB01B9019D01DC01CA0195
:104BB000AD01EF930E9431260E94B0240E94EB25A4
:104BC0005F91552339F02BED3FE049E450FD49EC6E
:104BD0000C943C250895DF93DD27B92FBF7740E87B
:104BE0005FE31616170648075B0718F4D92F0E94D3
:104BF000EE269F938F937F936F930E94F626E8E6AD
:104C0000F0E00E94C2260E94B0242F913F914F9164
:104C10005F910E943C24DD2351F09058A2EA2AEDD6
:104C20003FE049EC5FE3D0785D270E945325DF9198
:104C30000C94B0240E942E260C94B0240E94A92427
:104C400058F00E94A22440F029F45F3F29F00C9410
:104C5000992451110C94E4240C949F240E94C124A3
:104C600068F39923B1F3552391F3951B550BBB279B
:104C7000AA2762177307840738F09F5F5F4F220FE0
:104C8000331F441FAA1FA9F335D00E2E3AF0E0E8D7
:104C900032D091505040E695001CCAF72BD0FE2F21
:104CA00029D0660F771F881FBB1F261737074807B5
:104CB000AB07B0E809F0BB0B802DBF01FF2793586D
:104CC0005F4F3AF09E3F510578F00C9499240C9474
:104CD000E4245F3FE4F3983ED4F386957795679597
:104CE000B795F7959F5FC9F7880F911D96958795A2
:104CF00097F90895E1E0660F771F881FBB1F6217C1
:104D000073078407BA0720F0621B730B840BBA0B7E
:104D1000EE1F88F7E09508950E9493266894B111DC
:104D20000C94E42408950E94C92488F09F5798F0B9
:104D3000B92F9927B751B0F0E1F0660F771F881FA0
:104D4000991F1AF0BA95C9F714C0B13091F00E94BA
:104D5000E324B1E008950C94E324672F782F88278B
:104D6000B85F39F0B93FCCF3869577956795B395E1
:104D7000D9F73EF490958095709561957F4F8F4F50
:104D80009F4F0895DF93CF931F930F93FF92EF925E
:104D9000DF927B018C01689406C0DA2EEF010E943D
:104DA0003C24FE01E894A5912591359145915591BA
:104DB000A6F3EF010E945325FE019701A801DA94A2
:104DC00069F7DF90EF90FF900F911F91CF91DF91E6
:104DD00008950E94052408F48FEF08959B01AC010B
:104DE00060E070E080E89FE30C941A269B01AC0120
:104DF0000C9429240E940524880B990B0895991B73
:104E000079E004C0991F961708F0961B881F7A95C1
:104E1000C9F78095089597FB072E16F4009407D0E4
:104E200077FD09D00E94412707FC05D03EF49095FC
:104E300081959F4F0895709561957F4F0895A1E2E8
:104E40001A2EAA1BBB1BFD010DC0AA1FBB1FEE1F04
:104E5000FF1FA217B307E407F50720F0A21BB30B4F
:104E6000E40BF50B661F771F881F991F1A9469F7CB
:104E700060957095809590959B01AC01BD01CF0127
:104E80000895AA1BBB1B51E107C0AA1FBB1FA61791
:104E9000B70710F0A61BB70B881F991F5A95A9F7E3
:104EA00080959095BC01CD010895EE0FFF1F0590F0
:104EB000F491E02D09940F931F93CF93DF938230E9
:104EC000910510F482E090E0E0913E05F0913F05FD
:104ED00020E030E0A0E0B0E0309719F1408151814E
:104EE0000281138148175907C8F08417950769F4A0
:104EF000109731F012960C93129713961C9327C0BB
:104F000000933E0510933F0522C02115310519F08D
:104F10004217530718F49A01BD01EF01DF01F801B0
:104F2000DBCF21153105F9F0281B390B2430310571
:104F300080F48A819B816115710521F0FB019383C7
:104F4000828304C090933F0580933E05FE01329614
:104F500044C0FE01E20FF31F819391932250310967
:104F6000398328833AC020913C0530913D05232B9D
:104F700041F420910E0130910F0130933D052093B3
:104F80003C0520910C0130910D012115310541F4B2
:104F90002DB73EB74091100150911101241B350BE4
:104FA000E0913C05F0913D05E217F307A0F42E1BBC
:104FB0003F0B2817390778F0AC014E5F5F4F24177D
:104FC000350748F04E0F5F1F50933D0540933C0559
:104FD0008193919302C0E0E0F0E0CF01DF91CF91A7
:104FE0001F910F910895CF93DF93009709F481C02B
:104FF000FC01329713821282A0913E05B0913F05C9
:10500000109781F420813181820F931F20913C05FC
:1050100030913D052817390751F5F0933D05E09390
:105020003C0567C0ED0120E030E0CE17DF0740F41B
:105030004A815B819E0141155105F1F0EA01F5CFEE
:10504000D383C28340815181840F951FC817D9072C
:1050500059F488819981840F951F029691838083EA
:105060008A819B81938382832115310529F4F093F2
:105070003F05E0933E053DC0E901FB83EA8349918A
:105080005991C40FD51FEC17FD0761F48081918100
:10509000840F951F0296E901998388838281938109
:1050A0009B838A83E0E0F0E012968D919C911397A8
:1050B000009719F0FD01DC01F7CF8D919C911197BC
:1050C0009D012E5F3F4F820F931F20913C05309131
:1050D0003D052817390769F4309729F410923F05E8
:1050E00010923E0502C013821282B0933D05A09338
:1050F0003C05DF91CF91089581E090E0F8940C9405
:10510000512BFB01DC014150504048F001900D92C1
:105110000020C9F701C01D9241505040E0F70895AA
:10512000AEE0B0E0E6E9F8E20C9403250D891E89B3
:105130008F89988D26E02C831A83098397FF02C0FC
:1051400080E090E801979E838D83AE01455E5F4FBE
:10515000698D7A8DCE0101960E94C0284D815E81B5
:1051600057FD0AC02F813885421753070CF49A0166
:10517000F801E20FF31F10822E96E4E00C941F2535
:10518000ABE0B0E0E6ECF8E20C94F5246C017B01B6
:105190008A01FC0117821682838181FFCCC1CE0176
:1051A00001963C01F6019381F70193FD859193FFF0
:1051B00081917F01882309F4BAC1853239F493FDC6
:1051C000859193FF81917F01853229F4B60190E0AA
:1051D0000E94B72AE7CF912C212C312CFFE1F31547
:1051E000D8F08B3279F038F4803279F08332A1F440
:1051F000232D20611DC08D3261F0803369F4232D91
:10520000216016C0832D8260382EE32DE4603E2E8F
:105210002AC0F32DF8601DC037FC2DC020ED280FEB
:105220002A3040F08E32B9F436FC81C1232D20643F
:10523000322E19C036FE06C08AE0989E200D112439
:10524000922E11C0EAE02E9E200D1124222EF32D65
:10525000F0623F2E08C08C3621F4832D8068382EF2
:1052600002C0883641F4F70193FD859193FF819147
:105270007F018111B3CF982F9F7D9554933028F4EF
:105280000C5F1F4F9FE399830DC0833631F0833746
:1052900071F0833509F059C021C0F80180818983FC
:1052A0000E5F1F4F88248394912C530113C0280153
:1052B000F2E04F0E511CF801A080B18036FE03C011
:1052C000692D70E002C06FEF7FEFC5010E94AC2A2C
:1052D0004C018201F32DFF773F2E16C0280122E0FA
:1052E000420E511CF801A080B18036FE03C0692D2A
:1052F00070E002C06FEF7FEFC5010E94A12A4C0150
:10530000F32DF0683F2E820133FC1BC0822D90E00C
:1053100088169906B0F4B60180E290E00E94B72AA0
:105320002A94F4CFF50137FC859137FE81915F0116
:10533000B60190E00E94B72A21102A9421E0821A37
:1053400091088114910471F7E8C0843611F0893610
:1053500041F5F80137FE07C0608171818281938138
:105360000C5F1F4F08C060817181072E000C880BF5
:10537000990B0E5F1F4FF32DFF763F2E97FF09C04D
:1053800090958095709561957F4F8F4F9F4FF068F6
:105390003F2E2AE030E0A3010E94F32A882E8618CF
:1053A00045C0853731F4232D2F7EB22E2AE030E020
:1053B00025C0932D997FB92E8F36C1F018F488350A
:1053C00079F0B5C0803719F0883721F0B0C0E92FE7
:1053D000E061BE2EB4FE0DC0FB2DF460BF2E09C0EF
:1053E00034FE0AC0292F2660B22E06C028E030E025
:1053F00005C020E130E002C020E132E0F801B7FE54
:1054000007C060817181828193810C5F1F4F06C04C
:105410006081718180E090E00E5F1F4FA3010E94C8
:10542000F32A882E8618FB2DFF773F2E36FE0DC0FF
:10543000232D2E7FA22E891458F434FE0BC032FC8B
:1054400009C0832D8E7EA82E05C0B82CA32C03C0C6
:10545000B82C01C0B92CA4FE0FC0FE01E80DF11D4F
:105460008081803321F49A2D997EA92E09C0A2FE55
:1054700006C0B394B39404C08A2D867809F0B3941F
:10548000A3FC11C0A0FE06C0B21488F4280C922C14
:105490009B180EC0B21460F4B60180E290E00E9446
:1054A000B72AB394F7CFB21418F42B1802C0982C73
:1054B000212CA4FE10C0B60180E390E00E94B72A20
:1054C000A2FE17C0A1FC03C088E790E002C088E5F7
:1054D00090E0B6010CC08A2D867859F0A1FE02C07A
:1054E0008BE201C080E2A7FC8DE2B60190E00E9451
:1054F000B72A891438F4B60180E390E00E94B72AF5
:105500009A94F7CF8A94F301E80DF11D8081B601DA
:1055100090E00E94B72A8110F5CF222009F442CEF4
:10552000B60180E290E00E94B72A2A94F6CFF601F5
:105530008681978102C08FEF9FEF2B96E2E10C945A
:105540001125FC010590615070400110D8F780953D
:1055500090958E0F9F1F0895FC016150704001903F
:105560000110D8F7809590958E0F9F1F08950F9387
:105570001F93CF93DF93FB01238121FD03C08FEFA6
:105580009FEF2CC022FF16C04681578124813581B0
:105590004217530744F4A081B1819D012F5F3F4F13
:1055A000318320838C93268137812F5F3F4F378350
:1055B000268314C08B01EC01FB010084F185E02DF2
:1055C0000995892BE1F6D80116968D919C91179734
:1055D000019617969C938E931697CE01DF91CF91EB
:1055E0001F910F910895FA01AA27283051F1203117
:1055F00081F1E8946F936E7F6E5F7F4F8F4F9F4F67
:10560000AF4FB1E03ED0B4E03CD0670F781F891FA8
:105610009A1FA11D680F791F8A1F911DA11D6A0F76
:10562000711D811D911DA11D20D009F468943F9129
:105630002AE0269F11243019305D3193DEF6CF0128
:105640000895462F4770405D4193B3E00FD0C9F7EE
:10565000F6CF462F4F70405D4A3318F0495D31FD5B
:105660004052419302D0A9F7EACFB4E0A6959795AE
:10567000879577956795BA95C9F700976105710584
:1056800008959B01AC010A2E0694579547953795CE
:105690002795BA95C9F7620F731F841F951FA01D28
:1056A000089512E0CAEBD2E004C0FE010E94552723
:0C56B0002196CB3BD107C9F7F894FFCF3F
:1056BC000000754400808944E502E50200004005C5
:1056CC00800000010101000000007903E6021003D4
:1056DC00C60341031F033303000000007F04520480
:1056EC0050052E04F2033E042F0400000000C604F3
:1056FC00E60250052E0416052E05AE04000000002F
:10570C0000000000530554055405000000005D0A1C
:10571C0092065305A3055605095254433A202520F9
:10572C00642E2025203032642E2025203032642037
:10573C0025203032643A2025203032643A2025204E
:10574C00303264003A70003A43003A50003A447CDC
:10575C0025647C253032647C253032647C253032E3
:10576C00647C253032647C25303264007C257300E7
:10577C007C25647C25647C25647C2564005478201D
:10578C004672616D652000484D4335383833000D45
:0E579C000A006E616E00696E66006F76660030
:00000001FF
